:020000040800F2
:1000000020B60020E1020008F30A0008EB0A00080D
:10001000EF0A00088F090008AD0B0008000000007F
:1000200000000000000000000000000021020008A5
:10003000C50A0008000000007D0200080F0B000840
:10004000FB020008FB020008FB020008FB0200089C
:10005000FB020008FB020008FB020008FB0200088C
:10006000FB020008FB020008FB020008FB0200087C
:10007000FB020008FB020008FB020008FB0200086C
:10008000FB020008FB020008FB020008FB0200085C
:10009000FB020008FB020008FB020008C70A000878
:1000A000FB020008FB020008FB020008FB0200083C
:1000B000FB020008FB020008FB020008FB0200082C
:1000C000FB020008FB020008FB020008FB0200081C
:1000D000FB020008FB020008FB020008FB0200080C
:1000E000FB020008FB020008FB020008FB020008FC
:1000F000FB020008FB020008FB020008FB020008EC
:10010000FB020008FB020008FB020008FB020008DB
:10011000FB020008FB020008FB020008FB020008CB
:10012000FB020008FB020008FB020008FB020008BB
:10013000FB020008FB020008FB020008FB020008AB
:10014000FB020008FB020008FB020008FB0200089B
:10015000FB020008FB02000800000000FB02000890
:10016000FB020008FB020008000000000000000085
:10017000FB020008FB020008FB0200080000000070
:1001800000000000FB020008FB020008FB02000860
:10019000FB0200080000000000000000000000005A
:1001A000000000000000000000000000FB0200084A
:1001B000FB02000800000000FB0200080000000035
:1001C000000000000000000000000000000000002F
:1001D0000000000000000000FB020008FB02000815
:1001E000FB020008FB020008FB020008FB020008FB
:1001F000FB020008FB020008FB020008FB020008EB
:10020000FB020008FB020008FB020008DFF80CD02C
:1002100000F0F2FA00480047F135000820B600204F
:100220002C4B19680868B0E8F04F80F30988BFF3D9
:100230006F8F4FF0000080F31188704700000000BE
:1002400008480068006880F308884FF0000080F3D9
:10025000148862B661B6BFF34F8FBFF36F8F00DFB4
:1002600000BF00BF08ED00E0DFF80C00016841F4BA
:1002700070010160704700BF88ED00E0EFF3098076
:10028000BFF36F8F134B1A681EF0100F08BF20EDDD
:10029000108A20E9F04F106009B44FF0100080F38D
:1002A0001188BFF34F8FBFF36F8F06F029FF4FF018
:1002B000000080F3118809BC19680868B0E8F04FA5
:1002C0001EF0100F08BFB0EC108A80F30988BFF34E
:1002D0006F8F70479C000020EFF30580704700008F
:1002E0000648804706480047FEE7FEE7FEE7FEE7D0
:1002F000FEE7FEE7FEE7FEE7FEE7FEE71D0B000870
:100300000D0200080649074A0868504343F23902C3
:1003100010440860400870470149086070470000B9
:10032000C00100206D4EC64140EA01039B0703D087
:1003300009E008C9121F08C0042AFAD203E011F824
:10034000013B00F8013B521EF9D27047D2B201E0E6
:1003500000F8012B491EFBD270470022F6E710B5CA
:1003600013460A4604461946FFF7F0FF204610BD23
:1003700010B5044604E00B7800F8013B03B1491CBA
:10038000521EF8D2204610BDCAB2401E10F8011FFE
:100390008A4202D00029F9D100207047421C10F88F
:1003A000011B0029FBD1801A7047034611F8012B6D
:1003B00000F8012B002AF9D11846704730B50546E0
:1003C0000020034600E05B1C934205D2EC5CC85C55
:1003D000201A01D1002CF6D130BD0246C9B200E08E
:1003E000401C0378002BFBD102E003788B4203D042
:1003F000401E9042F9D20020704730B50B460146AE
:1004000000202022012409E021FA02F59D4205D3B3
:1004100003FA02F5491B04FA02F52844151EA2F15D
:100420000102F1DC30BD2DE9F05F05460020924667
:100430009B4688460646814640241BE028464146A6
:100440004746224600F0F9F953465A46C01A9141F0
:1004500010D311461846224600F0E0F92D1A67EB3A
:1004600001084F4622460120002100F0D7F917EB82
:1004700000094E41201EA4F10104DFDC484631464C
:100480002A464346BDE8F09F2DE9FE4F804681EAAB
:100490000300C00F0C46009021F0004123F00045FE
:1004A000B8EB0200A94105D24046214690461C46C1
:1004B0000B46024623F00040104347D0270DC7F3F8
:1004C0000A00C3F30A510290401A019040286BDAE7
:1004D000C3F3130040F4801B0098924620B1002320
:1004E000D2EB030A63EB0B0B01985946C0F14002B3
:1004F000504600F093F906460D4650465946019A7B
:1005000000F0ABF910EB08006141002487EA1152BA
:1005100084EAE7731A4340D0009A62B3019A012A31
:100520004FEA075215DC001B61EB02014FF000425D
:1005300002EA0752CDE90042001C41F58011324623
:100540002B4600F0ABF903B0BDE8F08F40462146E2
:10055000F9E7001B61EB0201001C41F58013001854
:100560005B412018A2F5001747EB030140EAD57064
:10057000B6196D4111E06D084FEA360645EAC075BF
:100580004FEA0752001B61EB0201001C41F580118C
:1005900049084FEA30000019514132462B4603B05A
:1005A000BDE8F04F00F06BB9009801224000002335
:1005B000D0EB020263EBE073009821464FEAE0744F
:1005C000B8EB000061EB0401E9E783F000435BE76F
:1005D00081F0004158E72DE9FE4F81EA030404F061
:1005E000004421F0004100944FF0000B23F0004341
:1005F00050EA01045ED052EA03045BD0C3F30A540C
:10060000C1F30A552C44A4F2F3340194A0FB025424
:10061000C1F3130141F48011C3F3130343F48013B6
:1006200001FB024400FB034E840A970A44EA81540A
:1006300047EA8357A4FB076802958D0A05FB0785E7
:100640004FEA932C04FB0C542705029D4FEA0658F1
:1006500047EA1637B5EB08056EEB070C870E920ECE
:1006600047EA811742EA8312A7FB0201B6EB0B01AE
:1006700064EB00042B0D43EA0C335E1844EB1C5072
:10068000DA465146E7FB0201C5F313044FEA0B3388
:1006900043EA14534FEA0432019C43EA0603A4F1EF
:1006A0000C040294009CCDE900B400F0F7F803B00C
:1006B000BDE8F08F00200146F9E72DE9F04D81EA11
:1006C000030404F0004B21F0004514464FF0000AEB
:1006D00023F0004150EA050220D054EA01021DD067
:1006E000C5F30A570246C5F31303C1F31300C1F360
:1006F0000A5640F4801543F48013A7EB0608101B3C
:10070000D64608F2FD3873EB050002D308F1010864
:1007100001E092185B41B8F1000F03DA00200146B6
:10072000BDE8F08D00204FF48011064684460EE0AF
:10073000171B73EB050705D3121B63EB0503064379
:100740004CEA010C49084FEA300092185B4150EA2C
:100750000107EDD152EA030012D082EA040083EAD5
:100760000501084305D0101BAB4106D2012200232E
:1007700006E000224FF0004302E06FF00102531048
:100780001AEB06004CEB085110EB0A0041EB0B0191
:10079000BDE8F04D00F073B8C1F30A52C1F3130184
:1007A00040F2FF3341F480119A4202DA0020014600
:1007B000704740F233439A42A2F2334202DC524283
:1007C00000F03BB800F02AB830B5041E71F1000407
:1007D00004DB4FF00044404264EB0101141E73F14E
:1007E000000405DB1C464FF00043524263EB040358
:1007F000994208BF904230BD064C074D06E0E068C4
:1008000040F0010394E8070098471034AC42F6D357
:10081000FFF700FDE494000804950008202A04DB9B
:10082000203A00FA02F1002070479140C2F1200303
:1008300020FA03F3194390407047202A04DB203A42
:1008400021FA02F00021704721FA02F3D040C2F1F0
:1008500020029140084319467047202A06DBCB1737
:10086000203A41FA02F043EAE07306E041FA02F36B
:10087000D040C2F12002914008431946704710B59C
:10088000141E73F1000408DA401C41F100019218B3
:100890005B411A4301D120F0010010BD2DE9F04D5C
:1008A00092469B4611B1B1FA81F202E0B0FA80F2B1
:1008B00020329046FFF7B2FF04460F4640EA0A0096
:1008C00041EA0B0153465A46084313D0114653EAF6
:1008D000010019D0C8F140025046FFF7AEFF0546AF
:1008E0000E46504659464246FFF798FF084305D04A
:1008F000012004E020463946BDE8F08D0020054384
:1009000046EAE0762C4337430A986305E40AA0EBF5
:1009100008000022FD0A44EA47540A3002D50020AC
:100920000146E9E7010510196941DDE908450019AB
:100930006941BDE8F04DA2E770B58C1810F8015B75
:1009400015F0070301D110F8013B2A1106D110F868
:10095000012B03E010F8016B01F8016B5B1EF9D16C
:100960002B0705D40023521E0DD401F8013BFAE7F2
:1009700010F8013BCB1A921C03E013F8015B01F85D
:10098000015B521EF9D5A142D8D3002070BD00BF33
:10099000FEE7000010B501F0CFFB002842D002F0C6
:1009A000EFFD00BF002433E001F016FB02F002FE71
:1009B00068B34FF4006002F00BFD1B49898988423F
:1009C0000ED1012005F026F81848008800281ADD0D
:1009D00004F0FEFD15480188134804F0FBFC12E00A
:1009E00040F6060002F0F4FC0F49898988420AD1DA
:1009F00004F05EFD0D480088002804DD0B480188E6
:100A0000094804F0E7FC641C01F0A0FA00E000E0F3
:100A1000CAE700BF204601F0E9FA01F09DFB00BFE4
:100A2000012010BD0020FCE7A4A500201401002037
:100A300010B5044601F03CFB204601F067FB10BDF9
:100A400010B502F023F810BD10B502F0B3FD08B1E7
:100A500002F0BEFB0148008810BD00001401002018
:100A600038B504462146684601F09EFB38BD70B596
:100A700004460D4616463146204601F065FA0CB98B
:100A8000002070BD3146284606F03AFDF9E70146E0
:100A900000221AB94878C0F380107047012A03D1A8
:100AA0004879C0F38000F8E70120F6E710B5044666
:100AB000204601F061FB2046FFF7E9FF08B901F08D
:100AC0003FFC10BD704710B502F08AF8044601F0F3
:100AD0006BFE48B102F084F8034602F0B3F802F06E
:100AE0007FF8044601F05AFE10BD00BFFEE700BFCC
:100AF000FEE770470FB408B503A80090009902986C
:100B000000F056F80020009001B05DF814FB10B51D
:100B100001F0ACFA06F0B2FD10BD00001F480068FD
:100B200040F470001D4908601D48006820F0010075
:100B3000401C1B49086000BF19480068C0F3400012
:100B40000028F9D016480830006820F00300144946
:100B50000831086000BF124808300068C0F3810007
:100B60000028F8D10E49083108600D4800680D4989
:100B700008400B4908600C48091D0860002008491E
:100B8000A03108604FF41F0005490C3108604FF098
:100B900000600249803908607047000088ED00E07D
:100BA00000380240FFFFF2FE0230030000BFFEE704
:100BB0000FB4054B10B503A9044A029800F006F9DA
:100BC00010BC5DF814FB00005D2800087C000020CC
:100BD0000FB41CB50246002007AC00290BD0491EFB
:100BE000CDE90021054B6A462146069800F0EEF853
:100BF000009A002111701CBC5DF814FBFB14000866
:100C00000FB4084B10B504A902AA039800F0DEF84F
:100C1000044602A9002000F07BFC204610BC5DF8D1
:100C200014FB00001115000802E008C8121F08C1DB
:100C3000002AFAD170477047002001E001C1121F5D
:100C4000002AFBD1704700002DE9FF5F82B0002130
:100C5000DDE90430020DDDF840B0034318D044F65E
:100C60001050A2F2FF3242431514119801281FD0F0
:100C7000A5EB0B00401C5FEA000A4FF000064E4F48
:100C8000DFF83891B046504615D5CAF1000413E09C
:100C9000119801244AA3012801D16FEA0B0102989F
:100CA000119AC0E90031C0E9024206B0BDE8F09FE8
:100CB000CBF10000DFE704460021404A491842EB2F
:100CC0000450CDE9001012E0E00707D032463B4661
:100CD00040464946FFF77FFC8046894632463B4600
:100CE00010461946FFF777FC06460F466410002CA5
:100CF000EAD1DDE90401DDE90023BAF1000F06DAEB
:100D0000FFF769FC42464B46FFF765FC05E0FFF73D
:100D1000D4FC42464B46FFF7D0FC04460E46002268
:100D2000284BFFF751FD03D84FF0FF30014607E095
:100D30000022254B20463146FFF7A6FBFFF72CFD8E
:100D4000102409E0002C0ADB0A220023FFF76BFBCA
:100D5000039B30321A55641E50EA0102F2D1641C22
:100D6000039AC4F111031444119A012A03D00122F9
:100D700008430DD10AE0084304D000204FF0110BC6
:100D8000119072E7A3EB0B056D1E0DE05B4504DDD2
:100D90004FF0000205F1010504E003DA4FF0000214
:100DA000A5F10105002AECD002981199C0E90231A1
:100DB000C0E9004579E70000000014400000F03F62
:100DC000300000000000F0430000E03F2DE9FF4F3D
:100DD00095B09B468946064600250FE2252877D127
:100DE00000242746F84A0121059400E0044316F840
:100DF000013F203B01FA03F01042F7D130782A2856
:100E000011D06FF02F033078A0F13002092A16D8E4
:100E1000059A44F0020402EB820203EB4202104402
:100E2000761C0590EFE759F8042B0592002A03DAA7
:100E3000504244F40054059044F00204761C30788B
:100E40002E2816D116F8010F44F004042A280DD0DC
:100E50006FF02F023078A0F13003092B09D807EB8F
:100E6000870302EB4303C718761CF3E759F8047BAA
:100E7000761C30786C280FD006DC4C2817D06828F8
:100E80000DD06A2814D104E0742810D07A280FD12C
:100E90000DE044F400140AE044F4801401E044F44A
:100EA00040147278824202D104F58014761C761CBC
:100EB000307866280BD013DC582877D009DC00285E
:100EC00075D04528F6D04628F4D047281AD19DE1A0
:100ED00018E0632835D0642879D0652812D195E1CF
:100EE000702873D008DC6728F1D069286FD06E288D
:100EF0000DD06F2806D1B5E073282CD0752875D099
:100F0000782874D05A46179990476D1C75E1C4F340
:100F10000250022809D003280DD0D9F80010042867
:100F20000DD00D6009F1040967E1D9F80010EA1746
:100F3000C1E90052F6E7D9F800100D80F2E70D7014
:100F4000F0E719F8041B8DF8001000208DF801005F
:100F5000EA46012003E059F804AB4FF0FF30610787
:100F60004FF0000102D40DE008F101018846B942BA
:100F70000FDA8045F8DB1AF808100029F4D108E0F0
:100F800008F1010188468142FADB1AF808100029AD
:100F9000F6D105985B46A0EB080721463846179A1C
:100FA00000F094FA284400EB080507E04DE029E141
:100FB0000DE01AF8010B5A4617999047B8F101084D
:100FC000F7D25B4621463846179A13E142E00A22DF
:100FD0000092C4F302524FF0000A022A08D059F8D6
:100FE00004CB032A4FEAEC710AD00DE029E02AE095
:100FF00009F1070121F00702F2E802C1914609E078
:101000000FFA8CFC4FEAEC71042A03D14FFA8CFCE6
:101010004FEAEC71002907DA0A460021DCF1000CE6
:1010200061EB02012D2202E0220504D52B228DF86E
:101030000420012203E0E20701D02022F7E79046D6
:1010400059E00A2102E010220DE010214FF0000AC1
:1010500000910BE010224FF0000A44F0040408272E
:10106000009203E008224FF0000A0092C4F30252FB
:10107000022A05D059F804CB0021032A08D009E040
:1010800009F1070121F00702F2E802C1914605E0EB
:101090001FFA8CFC042A01D10CF0FF0C4FF0000861
:1010A000220728D5702806D0009B83F0100353EA4E
:1010B0000A0305D00EE040228DF80420012208E04A
:1010C0005CEA010206D030228DF804208DF805007C
:1010D00002229046009B83F0080353EA0A030AD1D8
:1010E0005CEA010201D1620705D530228DF80420A7
:1010F0004FF001087F1E582804D034A003900EA89A
:1011000002900DE036A0F9E753466046009AFFF7DB
:101110008AF984460398825C0298401E029002700D
:101120005CEA0100F0D1029806A9081A00F1200A31
:10113000600702D524F4803400E00127574502DD22
:10114000A7EB0A0000E0002000EB0A0100900598E0
:101150004144401A0590E00306D45B462146179AA5
:10116000059800F0B3F90544002706E001A85A46A7
:10117000C05D179990476D1C7F1C4745F6DBE00367
:101180000CD55B462146179A059800F09FF9054457
:1011900004E030205A46179990476D1C0099481E6C
:1011A00000900029F5DC08E0029802995A46007880
:1011B000491C0291179990476D1CBAF10001AAF1E0
:1011C000010AF1DC65E10000092801003031323309
:1011D0003435363738396162636465660000000073
:1011E000303132333435363738394142434445465D
:1011F0000000000000F058F90544761C3078002803
:101200007FF4ECAD19B02846BDE8F08F620700D43A
:10121000062709F1070222F0070CFCE80223E14649
:1012200003F000485FEA080C02D00FF2702C0DE0CA
:101230005FEA045C02D50FF2682C07E05FEAC47C29
:1012400002D00FF2602C01E0AFF2700C4FF0FF38CB
:1012500023F00043CDF850C065280CD006DC4528AB
:1012600009D046281DD047283DD13DE0662818D03A
:1012700067287ED138E00021112F01DB112000E02A
:10128000781CCDE9000106A90EA8FFF7DDFCDDE919
:101290000F010E9A03910021009207F1010A0491B7
:1012A0004DE04FF000400097CDE9011006A90EA8CF
:1012B000FFF7CAFCDDE90F0203920E9B1199002291
:1012C000DDF80CA00093049211B9791C00EB010A1F
:1012D000B7EB0A0004D4C0F1FF3007F1010A049013
:1012E000AAEB0700019044E0012F00DA012700215A
:1012F000112F01DD112000E03846CDE9000106A9DB
:101300000EA8FFF7A1FCDDE90F010E9A0391002161
:1013100004910092BA4621070CD40399514500DA92
:101320008A46BAF1010F05DD009AAAF10101515C6C
:10133000302908D0B84202DA10F1040F06DA012190
:10134000CDE9011015E0AAF10101E9E7002805DC6B
:10135000049901440491AAEB000102E0411C5145AB
:1013600000DD8A460499401A401C01904FF000406D
:101370000290200704D40198504501DBCDF8048089
:1013800000208DF84F0002980DF14F07B0F1004F8B
:1013900025D02B200E9002984FF0020800280CDA7E
:1013A000404202902D200E9007E00A210298FFF79C
:1013B00024F83031029007F8011DB8F10001A8F1BE
:1013C0000108F2DC02980028EFD1791E0E9808700F
:1013D000307800F0200040F0450007F8020D12A818
:1013E000C01B00F107081498007800B1012000EB41
:1013F0000A01019801EBE07105984144401A401E32
:101400000590E00306D45B462146179A059800F044
:101410005DF805441498007818B15A46179990471A
:101420006D1CE00324D55B462146179A059800F011
:101430004DF805441CE00498002807DBDDE90301B2
:10144000884203DD0098405C179901E0179930202D
:101450005A469047049805F10105401C04900198F4
:10146000401E019004D12E205A46179990476D1CBA
:10147000BAF10001AAF1010ADDDC05E017F8010B61
:101480005A46179990476D1CB8F10001A8F1010860
:10149000F4DC5B462146179A0598ABE62D00000068
:1014A0002B000000200000002DE9F041044600253B
:1014B0001E461746880404D405E039462020B0476C
:1014C0006D1C641EF9D52846BDE8F0812DE9F04178
:1014D000044600251E469046C80301D5302700E08B
:1014E0002027880404D505E041463846B0476D1CE6
:1014F000641EF9D52846BDE8F0814A68002A06D066
:101500000A68531C0B6010704868401E48607047A2
:101510000A68531C0B601070704730B5044613E026
:1015200010680578206805701068401C10602068FD
:10153000401C20601888401E1880A088401EA08093
:101540008D4201D1022030BDA088002802DD18881C
:101550000028E5DC188808B90020F4E70BE01068E3
:1015600005781888401E18801068401C10608D4255
:1015700001D10320E7E718880028F0DC0120E2E72A
:10158000016082807047000003480068406908B12C
:1015900000BFFEE7704700009C010020F0B50B463D
:1015A000144619461E19751E0BE04E780F7806EB8F
:1015B0000726B2B28618B0B2904201DA461CB0B229
:1015C000891CA942F1D3A9420AD10E78002707EB62
:1015D0000626B2B28618B0B2904201DA461CB0B20A
:1015E000F0BD10B500F026FD10BD00001CB5084888
:1015F000022100234FF42072CDE9001005A1084814
:1016000006F056F8012802D006A0FFF7D1FA1CBD5B
:10161000080000206E65745F7461736B0000000049
:10162000E17400084E65745F7461736B20637265CA
:1016300061746564204572726F72210D0A000000AA
:101640000349096860F30711014A116070470000FF
:10165000083802400349096860F38C21014A11608F
:1016600070470000083802400349096860F34F31B1
:10167000014A11607047000008380240012807D174
:101680000749096821F030013031054A116005E051
:101690000349096821F03001014A116070470000D8
:1016A000A438024005282BD2DFE800F0030A111805
:1016B0002100154A126861F30002134B1A6020E002
:1016C000114A126861F310420F4B1A6019E00E4A7A
:1016D000126861F318620C4B1A6012E00A4A703209
:1016E000126861F30002084B70331A6009E0064A81
:1016F0007432126861F30002034B74331A6000E025
:1017000000BF00BF70470000003802402DE9F043E1
:1017100001460024A14600250026A0460022002301
:1017200000F026F9074627B1012F12D0022F39D138
:1017300012E02E480068C0F3803038B12B480068B2
:10174000C0F3003010B12A48086001E02948086061
:101750002BE02848086028E024489C380068C0F343
:10176000805622489C380068C0F388141F489C3873
:10177000006800F00F091D489C380068C0F3024063
:10178000DFF874C01CF8005016B9DFF8688001E07B
:10179000DFF8608008FB04F009FB05FCB0FBFCF0FF
:1017A000086002E01348086000BF00BF0F48983887
:1017B0000068C0F303121148835C0868D840486091
:1017C0000A4898380068C0F382220D48835C486854
:1017D000D840C860054898380068C0F342320948CC
:1017E000835C4868D8408860BDE8F083A038024038
:1017F000006CDC0200127A006C7A00084C7A000857
:101800005C7A0008647A000810B501460020094B94
:1018100003EB1142D2F8002801F01F040123A3407A
:101820001A4001F01F040123A3409A4200D000E0B7
:10183000012010BD0030024030B50024002500E03A
:10184000641C1120FFF7E0FF012802D0B4F5405FCF
:10185000F6D31120FFF7D8FF012801D0002500E0C2
:101860000125284630BD000010B501290FD1104BCD
:1018700003EB1042D2F8002800F01F040123A3401C
:101880001A430B4C04EB1043C3F800280EE0084B3E
:1018900003EB1042D2F8002800F01F040123A340FC
:1018A0009A43034C04EB1043C3F8002810BD00001A
:1018B0000030024030B50B4C246860F39654094D5B
:1018C0002C602C46246861F38E142C602C4624680E
:1018D00062F303042C602C46246863F312442C60EA
:1018E00030BD0000043802401948006820F00100B3
:1018F000401C1749086000BF15480068C0F340004D
:101900000028F9D012480830006820F00300104980
:101910000831086000BF0E4808300068C0F381003D
:101920000028F8D10A4908310860094800680949C7
:101930000840074908600848091D0860002004495C
:10194000A03108604FF41F0001490C310860704756
:1019500000380240FFFFF2FE02300300034909682D
:1019600060F30101014A116070470000083802402D
:1019700002480068C0F38100704700000838024048
:1019800010B5192000F043F9052000F0D3F800F05D
:10199000F5F910BD10B505490968486801F0ACF8C3
:1019A00001F0B6F800F0DAF910BD0000A80100203F
:1019B00010B500F097FB10BD10B500F0D1FB00F0A2
:1019C00097FB10BD08B5022269462A2000F029F9CC
:1019D0009DF800009DF8011040EA012008BD10B5F7
:1019E000742001F01EF90446752001F01AF944EA4A
:1019F000002010BD10B5044606222146102000F03C
:101A000010F910BD10B5242001F00BF90446252073
:101A100001F007F944EA002010BD08B5022269462A
:101A2000002000F0FEF89DF800009DF8011040EA4B
:101A3000012008BD30B589B004466CB1204605F0E0
:101A4000A5FB48B1204601F079FD01F06FFD054688
:101A500000F06EF909B030BD07A8FFF7CBFF07A86B
:101A600005F094FB18B107A801F068FD38E09DF877
:101A700021009DF820109DF81F209DF81E30CDE913
:101A80000032CDE902109DF81D309DF81C2015A1F3
:101A900018A0FFF78DF8002001F050FD00BF01F005
:101AA00045FD016805918088ADF818009DF8190082
:101AB0009DF818109DF817209DF81630CDE90032DA
:101AC000CDE902109DF815309DF8142015A109A04C
:101AD000FFF76EF800BF01F029FD054600F028F978
:101AE00000BFB7E7696E76616C69642E6D61632E25
:101AF000730000002573206D61632061646472656A
:101B0000737320253032783A253032783A253032D6
:101B1000783A253032783A253032783A25303278A2
:101B20000D0A000072616E646F6D2E6D61632E652B
:101B30000000000010B504460121002001F0A5F9C5
:101B4000204601F079FD10BD2DE9F0410446002644
:101B5000E0B240F040010C2001F097F90C210B207D
:101B600001F093F9012000F066F908E0012000F08F
:101B700062F9701C0646B0F5FA7F00DB06E00B2028
:101B800001F04FF800F001000028EFD100BF002164
:101B90000B2001F07AF90D2001F043F807460E20E2
:101BA00001F03FF847EA00252846BDE8F08170B50E
:101BB00005460C460026E8B240F040010C2001F03A
:101BC00064F9E1B20D2001F060F9210A0E2001F064
:101BD0005CF90A210B2001F058F9012000F02BF9E3
:101BE00008E0012000F027F9701C0646B0F5FA7FE6
:101BF00000DB06E00B2001F014F800F001000028E3
:101C0000EFD100BF00210B2001F03FF970BD10B5EE
:101C1000044600211F2001F038F9204600F0FFF8AB
:101C200010BD2DE9F04105460E461746002407E099
:101C3000284600F0F6FF3055601C84B2681CC5B21F
:101C4000BC42F5DBBDE8F08110B5702000F0E9FF83
:101C5000702000F0E6FF10BD08B50421684600F0D2
:101C6000C5FF80217E2001F010F9684602F0C0FA1D
:101C700008BD70B505460C464CB12146284600F01B
:101C8000B5FF80217E2001F000F9204670BD0020C4
:101C9000FCE7000010B5FFF7D7FF04460F480068C7
:101CA000406850B100BF04F00300012804D01CB10B
:101CB000204600F009FD10BD08E000BF012C04D053
:101CC0001CB1204600F000FDF5E700BF00BF14B9CD
:101CD00000F04CFDEFE700BF0120ECE79C01002085
:101CE00010B507480068C06840B139210A2001F0EA
:101CF000CCF840F2E1510420FFF759FF10BD00007D
:101D00009C01002010B500F0F3F910BD10B50024BF
:101D10000BE0072C01D1802200E00022114604F1E3
:101D20001602D0B201F0B1F8641C082CF1DB10BD32
:101D300010B5044606222146102000F05DF810BDC3
:101D400070B50446312514B145F00A0000E028467C
:101D50000146052001F099F870BD000010B5FFF7AD
:101D6000D5FFFFF7BDFFFFF7CDFF034909680869FD
:101D7000FFF7E6FF10BD00009C01002010B5802198
:101D80005E2001F082F80F213D2001F07EF88121D4
:101D9000572001F07AF80121392001F076F808483F
:101DA0000068006818B10721312001F06EF804487E
:101DB0000068406818B10321322001F066F810BDB8
:101DC0009C01002010B50446E1B27C2001F05DF8D2
:101DD000210A7D2001F059F8204610BD10B50446B7
:101DE0002046FFF7EFFF10BD70B504460D462946AB
:101DF000204601F02FF870BD2DE9F04105460E4652
:101E00001746002407E0315D284601F03EF8601CCB
:101E100084B2681CC5B2BC42F5DBBDE8F08100B5F8
:101E2000024600F02BF9034600BF00F027F9C01A64
:101E30009042FAD300BD10B5024600F01FF90346E8
:101E400000BF00F01BF9C11A02F2E7304FF47A74B8
:101E5000B0FBF4F08142F4D310BD000070B586B041
:101E600004460D4616461C480068022802DA304631
:101E700006B070BD19480088844228DA17480088E7
:101E8000B0F5804F23D016480088844202DB4FF41F
:101E9000505000E00020284485B212480368E8B2A0
:101EA0002912E2B2CDE90403CDE9022120120C4946
:101EB0000978CDE900100A48008803123246032150
:101EC0000948FEF775FE761C0020064908600348A5
:101ED00004803046CCE70000540100207601002049
:101EE000640100205801002010930008014691F879
:101EF0002000062821D11248007800F00100E0B14E
:101F0000088A104A1268528A90420CDD088A0D4AEB
:101F10001268528A801A08820A4A48681268528AED
:101F20001044486005E00A8A486810444860002070
:101F30000882012081F8200070470020FCE70000A3
:101F4000180100201C0100207047000010B50A484D
:101F50000068401C0849086008480068032803DB43
:101F600007480068082805DA0448006800F00AF805
:101F70000249086010BD0000580100205C010020EB
:101F80006001002038B504466846FEF769FDBDF8DB
:101F90000020094801880120FEF769FD0546294611
:101FA000BDF8000001F014FC22462946BDF80000EF
:101FB000FFF754FF38BD00006401002010B505484C
:101FC000FEF74EFD034802884FF440610020FEF703
:101FD0004EFD10BD6401002010B50348006808B92B
:101FE000FFF7ECFF10BD00005801002010B50446BB
:101FF0000B48006890B18CB109480068401E084940
:1020000008600848006808B907A000E007A001467A
:102010002346034802680648FEF7CAFD10BD0000CB
:102020005000002030000020504F4C00494E54001A
:10203000D88E00080A480068401C09490860084614
:1020400000680849884207D300200549086006480F
:102050000068401C0449086003480068704700009D
:102060001400002040420F000C00002002480068CD
:10207000401C0149086070470C0000200A480068B5
:10208000401C094908600846006842F21071884205
:1020900007D300200449086004480068401C034935
:1020A0000860024800687047BC010020B4010020AD
:1020B00010B5002000F0D2FD012000F0CFFD00F0AF
:1020C000D5FD00F045FD06490968486000F0E0FCD8
:1020D00000F0BCFC00F054FE00F0D8FC10BD000085
:1020E000A801002010B580217F2000F0CEFE10BD99
:1020F00010B500F0CBFC08B9802000E08120044638
:1021000021467F2000F0C1FE10BD000010B504463E
:10211000022000F0A3FD00F00BFA30B9FFF734FA0B
:1021200004A0FEF745FD002010BD204601F030FA66
:10213000FAE700000D0A000010B506490968486872
:1021400001F034F918B1FFF733FC012010BD002075
:10215000FCE70000A801002010B5FFF72DFC10BD22
:1021600010B57E2000F05DFD044621467E2000F083
:102170008CFE44F47F4010BD70B504460120FFF78B
:10218000E3FC0546FFF71EFC45EA0045FFF745FC6A
:1021900006462670300A6070280EA070280CE07089
:1021A000280A2071657170BD70B504460D46FFF7B1
:1021B00029FC2080FFF713FC288070BD70B5044611
:1021C000FFF768FD38B1FFF747FD05462946204671
:1021D000FFF74FFD70BD0020FCE7000070B505461D
:1021E0000E4620A0FEF7E4FC002434E0E11704EBE7
:1021F000D1614911A4EB411119B914B121A0FEF725
:10220000D7FCE21704EBD2625211A4EB421232B1B6
:10221000E21704EB12721211A4EB02121AB9214652
:1022200019A0FEF7C5FCE11704EB5171C910A4EB2E
:10223000C10111B916A0FEF7BBFC0CB1012C03D1F2
:1022400014A0FEF7B5FC05E0A01E295C12A0FEF765
:10225000AFFC00BF641CB01C8442C7DB09A0FEF7C2
:10226000A7FC70BD5348572072786253746174693B
:10227000737469632C203235342077726E67730D66
:102280000A0000000D0A0000253032783A000000F4
:1022900020000000202000002564200070B50546C5
:1022A0000C462046FFF79AFD044644B121462846D5
:1022B000FFF79AFD4FF4FA71012003F051F870BD59
:1022C00010B504460B4948680121FFF7CDFA0949CA
:1022D000002301220868214604F064FD05490868CE
:1022E000012104F0BFFD03490868012104F04CFD01
:1022F00010BD0000800000201CB501214FF44010EB
:10230000FFF7B2FA684600F035FB01208DF80700B0
:1023100000208DF8040002208DF8060000020090D5
:1023200000208DF805006946044800F02DFB0722C7
:102330000921024800F065FB1CBD000000000240BE
:102340000348006810B10020014908607047000090
:10235000540100207CB505466846FEF7A7FB684699
:10236000FEF795FB08B1012000E000200446144868
:10237000006880B13CB101F0D3FA01F06FFA35B9D1
:1023800002F04AFC03E001F0C5FA01F067FA002010
:102390000B4908607CBD01F0B7FA30B92CB101F0EF
:1023A000BFFA01F05BFA0120F4E701F0ADFA20B1C9
:1023B0001CB901F0AFFA01F051FA0020EAE7000081
:1023C0007C0100202DE9F043C5B005460E4600BF54
:1023D00005AC00F0B7FB074600F0AAFB804600F012
:1023E00031FB81460CA04B460EA24FF48071CDE923
:1023F0000186CDE90370009505A8FEF7E9FB04E02E
:1024000014F8010B114901F0F3FD20780028F7D1F1
:1024100000BF45B0BDE8F0834E6F762031312032E9
:10242000303235000D0A0D0A0D0A5B2573206D6FE1
:1024300064655D202F2573205B25735D2025732047
:102440002F25732025730D0A000000007C0000205A
:102450002DE9F0479EB080460F46B8F1000F06D137
:102460002FB900202A4908601EB0BDE8F08728482F
:102470000068022800DBF7E74FF0200900263DE066
:10248000B81B1FFA80FACA4500DBCA4600250DEBCF
:10249000050032461FA1FEF7B3FB0544002424E0EB
:1024A000E11704EB5171C910A4EBC10129B90DEB7F
:1024B00005001AA1FEF7A4FB0544E11704EB117116
:1024C0000911A4EB011129B90DEB050013A1FEF7C9
:1024D00097FB0544311918F801200DEB050010A1F8
:1024E000FEF78EFB0544601C84B25445D8DB694678
:1024F0000DA0FEF75DFB06EB0A0086B2BE42BFDB15
:1025000003480068401C0249086000BFACE70000B7
:102510007801002020253375000000002000000015
:10252000202530327800000025730D0A00000000DD
:102530002DE9FC4703260025FFF7A0FD07465C2098
:1025400000F06FFB8146FFF73DFA0446B4F5104FEB
:1025500001D149F2510400F075FA804649F2510068
:10256000844202D0C01D844201D124A000E027A0F3
:102570000246234641462AA0FEF71AFB49F25100C3
:10258000844201D11DA000E020A0014622462BA0DC
:10259000FEF70EFB20E02C4D01E0FFF76FFD281E3B
:1025A000A5F10105F9D1FFF769FDC51B012D13D870
:1025B0004FF47A7042F21071CDE9001001D123A0DE
:1025C00000E026A003460DB125A000E029A00146A9
:1025D0002A462D48FEF7ECFA15B9701E061EDADA07
:1025E00049F25100844202D0C01D844203D115B18A
:1025F0000120BDE8FC870020FBE70000444D393096
:10260000353120666F756E6400000000444D39302E
:102610003531206E6F7420666F756E6400000000A7
:102620005B445249564552202573206D6F64655DA9
:102630002025733A20253034780D0A0025733A207E
:10264000253034780D0A000040420F002C20696EBE
:1026500063726561736520747970650020210000E4
:102660005B484541525442454154205741524E5DCA
:10267000000000005B48454152544245415420450A
:1026800052524F525D000000849400080FB410B500
:10269000AEB031A80090009810C80090224601A862
:1026A0003099FEF7ADFA01A906A0FEF781FA0020E5
:1026B0000090FFF765F9FFF76DF900202EB010BC10
:1026C0005DF814FB2573000070B505460126002453
:1026D00017E0A01C854213D10D48005D401C0C4939
:1026E00008552B462246FE21094801F04FFD0646BB
:1026F0000EB9002070BD314606A0FFF7C7FFF9E70D
:10270000641CFE2CE5D331460EA0FFF7BFFFF1E7B6
:1027100020B100205F646D393035316620727862F7
:10272000206572726F7220616363756D756E61747E
:10273000696F6E2074696D6573203A2025750D0AE6
:1027400000000000646D3920696D706F73736962F9
:102750006C652070617468206572726F7220746994
:102760006D6573203A2025750D0A00001CB5694679
:1027700001A8FFF719FDBDF80010BDF8040001F035
:1027800086FD08B100201CBD0020FCE7002141723D
:102790004160012101720170704700000149086029
:1027A00070470000143C0140014600200022044B09
:1027B0001B6803EA01020AB1012000E00020704713
:1027C000143C0140014600204868234A12688243B5
:1027D000214B1A601A1D126882431B1D1A604A7A27
:1027E0000AB30A782AB91A1F126802431B1F1A601B
:1027F00006E0194A121D12680243174B1B1D1A608E
:10280000154A083212688243134B08331A601A1DA6
:10281000126882431B1D1A600A7A2AB91A1F1268AD
:1028200002431B1F1A6016E00A7A012A07D10A4ADE
:102830000C3212680243084B0C331A600BE0064A54
:10284000083212680243044B08331A601A1D1268DA
:1028500002431B1D1A607047003C014070B50446DE
:102860000D4600BF8021054804F093FA0028F9D0F6
:10287000A1B2024804F084FA204670BD0010014065
:1028800070B505462C469C2000590D490968498AB7
:10289000884205DD0A480068408AC4F8A00003E0C9
:1028A0009C200059C4F8A00098340648A26821680A
:1028B0000068FDF739FD2089983C80B270BD0000AA
:1028C0001C0100200C01002010B592B004462148E4
:1028D0004088000A1F4989781E4A1288120A1D4B37
:1028E0001B78CDE90D32CDE90F101B484088000A56
:1028F00019498978184A1288120A174B1B78CDE9B2
:102900000932CDE90B1015484088000A13498A782E
:102910000988090A114B1B78CDE90531CDE907205B
:102920000F4842790179C0780D4B9B78CDE9013091
:10293000CDE903120A484078009009480378094A13
:1029400040F2CA5108480068FEF742F980B212B05E
:1029500010BD00000401002008010020000100203B
:10296000907A0008C89000080C010020816270472E
:10297000816170474FF6FF71016000218171017123
:1029800041710121C171704770B50A460021148858
:10299000A3B233E003F001046CB304684E000325D6
:1029A000B540AC43046094794D00AC4005682C43BD
:1029B0000460446801258D40AC4344604468157947
:1029C0008D402C43446084684E000325B540AC43E1
:1029D0008460D4794D00AC4085682C438460C46821
:1029E0004E000325B540AC43C46054794D00AC4063
:1029F000C5682C43C4605B104C1CA1B2002BC9DC21
:102A000070BDF0B5002300244D07ED0E02FA05F36A
:102A1000CD105DB1456A4E07F70E0F26BE40B54397
:102A20004562456A45EA030444620AE0056A4E07C6
:102A3000F70E0F26BE40B5430562056A45EA03045A
:102A40000462F0BD00A07047494E540010B5FFF776
:102A5000F9FF0446214602A0FEF7AAF810BD0000C7
:102A60005B636F72655D20646D393035315F636F14
:102A70006E737461616E74732027257327205275FD
:102A80006E6E696E672E2E2E0D0A000001207047B3
:102A90001FB5002000900190029003906846FEF759
:102AA00035FE07490298B0FBF1F106488278022012
:102AB0009040B1FBF0F4214603A0FEF779F81FBD6A
:102AC00040420F00900100205B68616C5D206174E2
:102AD0003332663433375F7370693120277370691E
:102AE000272052756E6E696E672025644D687A2EB8
:102AF0002E2E0D0A0000000000B5014600F070F80F
:102B0000884202D10020014A106000BD4C01002023
:102B100010B50649487800F047FE044991F90000D5
:102B20000022012100F0DCFD10BD00009C8E000899
:102B300000A07047646D393035315F753235313002
:102B40000000000000A07047725F395F3100000094
:102B500000B585B001211D48FEF786FE01211C4805
:102B6000FEF782FE03A8FFF705FF00208DF8100096
:102B700001208DF8130000208DF8120001208DF83F
:102B800011001448808803901249086803A9FFF7D0
:102B9000FBFE114A5178107801F080FB6846FFF780
:102BA000F5FD01208DF8090000208DF800000B488C
:102BB000406801900948007A8DF808006846FFF7E0
:102BC00001FE0648406805B000BD0000020030006C
:102BD0000E004400A88E0008988E00089C8E000805
:102BE00001484068704700009C8E00082DE9F047BE
:102BF00005460E4600F024F97227A846B14638462D
:102C000000F0F8F8002405E000F0A0F808F804004F
:102C1000601C84B24C45F7DB00BF00F007F9BDE84B
:102C2000F08738B5044600F00BF96D46204600F0F9
:102C3000E1F800F08BF8287000BF00F0F7F89DF87D
:102C4000000038BD00B50146FFF7CAFF884202D137
:102C50000120014A106000BD4C01002001460248DD
:102C600050F8210070470000880100201CB50121A8
:102C70003048FEF7F9FD304801F004FF00202E49EE
:102C80000870012048708870022088700020C87089
:102C9000087148718871294801F012FF0121274805
:102CA00001F0FBFE01214FF44010FEF7DDFD684608
:102CB000FFF760FE00208DF8040001208DF807006A
:102CC0008DF8060000208DF805004FF400400090BC
:102CD00069461B48FFF758FE6846FFF74BFE002089
:102CE0008DF8040001208DF8070002208DF8060001
:102CF00000208DF80500134880880090114908686D
:102D00006946FFF741FE104B5A7819780D4B186849
:102D1000FFF777FE0C4BDA7899780A4B1868FFF7C3
:102D200070FE094B5A791979064B1868FFF769FE4E
:102D30001CBD00000C004400900100200030014048
:102D400000000240B08E0008B88E000810B500BF29
:102D500002210A4801F0ACFE0028F9D00021074802
:102D600001F0A4FE00BF0121044801F0A1FE0028EB
:102D7000F9D0024801F096FEC0B210BD003001400B
:102D80007FB5002000900190029003906846FEF706
:102D9000BDFC0A490298B0FBF1F109488278022093
:102DA0009040B1FBF0F405490298B0FBF1F52346E1
:102DB0002A4604A106A0FDF7FBFE7FBD40420F009E
:102DC00090010020617062325F66726571000000E0
:102DD00020282573292025644D687A2C207365747A
:102DE0002053504920434C4B2025644D687A0D0AEE
:102DF0000000000010B5044600BF02210A4801F09F
:102E000057FE0028F9D02146074801F04FFE00BFC9
:102E10000121054801F04CFE0028F9D0024801F0DC
:102E200041FEC0B210BD00000030014010B54FF4AB
:102E300000410248FFF79CFD10BD00000000024069
:102E400010B54FF400410248FFF790FD10BD00009F
:102E5000000002402DE9F04705460E46FFF7F0FF5F
:102E6000F827A846B1463846FFF7C4FF002405E01E
:102E700018F80400FFF7BEFF601C84B24C45F7DB76
:102E800000BFFFF7D3FFBDE8F08770B505460C46DD
:102E9000FFF7D6FF45F080063046FFF7ABFF204630
:102EA000FFF7A8FF00BFFFF7C1FF70BD10B50446D4
:102EB000204600F009F894F89600012802D1204637
:102EC00000F0C4F810BD000038B5044601200090A1
:102ED000A08840B1B0F5B97F0AD0A0F2791020B334
:102EE00032286FD174E000BF4FF4B970A08000BFEA
:102EF0002021201D00F0FAFF08B9002038BD00BFD6
:102F00000422424904F15000FDF758FA40B100BFD5
:102F100010203F49087000BF0020A0800120EDE78D
:102F200000BF40F27910A08000BF2021201D00F0DA
:102F3000DDFF08B90020E1E700BF94F850002F281A
:102F400008D000BF10203249087000BF0020A080C8
:102F50000120D3E75120005D202803D05120005DDF
:102F60003F281ED10E222BA104F18200FDF700FAAA
:102F700007222CA104F15100FDF720FAF0B95920E5
:102F8000005D312806D129A0FDF7B4FD01202A49B2
:102F9000086013E000202849086028A0FDF7AAFD7A
:102FA0000CE0201D00F026FF401E04F1500100221D
:102FB0000A54142204F18200FDF7DAF9012084F8A2
:102FC00096001CE01CE000BF40F2AB10A08000BFE8
:102FD0000A21201D00F08AFF08B900208EE700BFFB
:102FE0000822194904F15000FDF7E8F938B9201D0D
:102FF00000F000FF801E04F1500100220A54E2E7B5
:1030000000200090A080022078E70000538C000888
:10301000180100202F6C6564746573742E68746DDC
:103020006C0000003F737769746368004C4544206E
:103030004F4E200D0A000000040000204C454420A3
:103040004F4646200D0A0000BD8C000838B50446E6
:1030500001200090B4F84C0040F25312811A9042C3
:1030600058D008DC70B1A0F24510C0B1032824D0BC
:103070000B287CD140E0052959D00D2975D01129A4
:10308000F7D181E00D2249A104F18200FDF796F904
:10309000D8B900BF40F24510A4F84C0000BF474922
:1030A000204601F0ADF908B9002038BD00BF00BFCF
:1030B0004FF4A470A4F84C0000BF204601F0A6FA1B
:1030C00008B90020F1E700BF66E004F1980104F1BF
:1030D000820000F0F3F920BB04F19801384800F0B9
:1030E000EDF9374904F18200FDF75FF900BF4FF4B5
:1030F000A870A4F84C0000BF3249204601F080F9C6
:1031000008B90020D1E700BF00BF40F25310A4F877
:103110004C0000BF204601F043F908B90020C4E785
:1031200039E000BF4FF4AC70A4F84C0000BF234955
:10313000204601F065F908B90020B6E700BF2E214E
:1031400004F18200FDF720F90546BDB106221E49B3
:103150002846FDF733F988B90020A4F84E0000BFD7
:103160004FF4B070A4F84C0000BF204600E016E019
:1031700000F05EF808B9002097E70CE000BF4FF4BC
:10318000B270A4F84C0000BF204601F009F908B95C
:1031900000208AE700BF00BF10200C490870002003
:1031A0000090A4F84C0002207FE700002F6C6564BB
:1031B000746573742E68746D6C000000C68C000812
:1031C000B38C00081A8D00086B8E000818010020CF
:1031D00010B54FF4006000F0FBF81349898988426C
:1031E0000ED1012002F016FC1048008800281ADDDC
:1031F00002F0EEF90D4801880B4802F0EBF812E0FE
:1032000040F6060000F0E4F80749898988420AD1AF
:1032100002F04EF905480088002804DD03480188C3
:10322000014802F0D7F810BDA4A500201401002029
:10323000F8B5044601200090B4F84E0040B1D628FD
:103240002DD0DA2837D0A0F2071000287ED18CE0EC
:103250009FE0D4F898000078252845D1D4F898004C
:103260004078212840D1D4F89800C01CC4F8A400AC
:103270009C200059C01EC4F8A800D4F8A40010F87F
:10328000010C3A2812D1D4F8A410481C04F198017A
:1032900000F014F900BFD620A4F84E0000BF20466D
:1032A00001F07EF808B90020F8BD12E000BFDA2076
:1032B000A4F84E0000BFD4F8A40000F0E1F80746DF
:1032C000D4F8A46031462046B84708B90020EBE79F
:1032D00000BF204600F0E6F99834E06820602169DC
:1032E000983C9C20015154E09C2000592E490968CB
:1032F000498A884205DD2C480068408AC4F8A0004D
:1033000003E09C200059C4F8A000D4F8980000788D
:10331000252807D1D4F89810481C2521FDF734F84A
:10332000054605E02521D4F89800FDF72DF805465F
:10333000ADB1D4F89800A84211D054F8980F281ACB
:10334000A060A068983C1849096800E026E0498A16
:10335000884204DB14480068408AC4F8A00000BF1B
:1033600040F20710A4F84E0000BF204601F06CFBAD
:1033700008B9002098E700BF54F8980FA1680844E6
:1033800044F898099C200059D4F8A010411A9C20B8
:1033900001519C20005900283FF75BAF00200090AE
:1033A000A4F84E0002207FE71C01002000B5014672
:1033B000FFF716FC884207D10448006820B10020BE
:1033C000024A1060012000BD0020FCE74C010020F3
:1033D0000146080240EA212080B2704710B5264815
:1033E000006800F11C042548007800F01000002857
:1033F00040D12248007800F0200000283AD11F4830
:10340000007800F08000002834D11C48007800F0DB
:103410004000B0B1312204F15001201D00F034FD14
:10342000312204F1500104F1280000F02DFD0020AC
:10343000A4F84C0084F8960020702046FFF736FD73
:1034400018E0A4B10D48007800F0080048B12078D9
:10345000401C20702078142805DB202007490870C4
:1034600001E0002020702046FFF720FD02E0202030
:103470000249087010BD00001C0100201801002046
:1034800070B505460B4C0FE021680868FCF786FF15
:1034900006462168324608682946FCF78FFF10B9B6
:1034A0002068406870BD241D20680028ECD10248C7
:1034B000F8E700003C010020C736000870B506465A
:1034C0000D46094C0BE03046616800F00FF828B952
:1034D000A0682860E0686860012070BD2468002C46
:1034E000F1D10020F9E70000248C000810B5024655
:1034F0000B46002100BF585C28B1505C0D2802D05B
:10350000505C0A2801D1002010BD505C5C5CA042D8
:1035100001D00120F8E7481CC1B2ECE710B54FF428
:10352000A04002F043FA10BD704770470048704752
:10353000AC010020004870470001002010B504468F
:103540002CB10E4821680160A188818014E0002020
:103550000A490870602048706E208870FCF7D2FE1F
:103560000649C870FCF7CEFE401C04490871FCF700
:10357000C9FE801C01494871004810BDAC01002003
:1035800002480068401C0149086070472C00002078
:1035900010B504460120064909680860FEF7F0F9F5
:1035A0002046FEF747FAFEF7F5F9FFF7BFFF10BD1B
:1035B000A801002010B5064800F05CFE054908800F
:1035C00008460088002801DD012010BD0020FCE72E
:1035D000A4A5002014010020014608884A88104351
:1035E0008A88104308B9012070470020FCE70000DA
:1035F00010B5032000F0D8F801F044FC4FF4E1309E
:1036000001F0F0FE06A109A0FEF7DCFE03F07AFC53
:10361000FDF7ECFF03F0A0FC03F022FD002010BD3D
:103620007765625F73657276657200005549505F19
:1036300070726F6A6563740010B504460EE0641E14
:103640000120FEF7ECFB0020FFF7EBFA00F0010091
:1036500000B910BD14B903A0FDF7AAFA002CEED1F1
:1036600000BFF6E76E63725F636F6D706C5F7469C5
:103670006D656F75742875696E7433325F7420746C
:10368000696D656F75745F6D7329202D2D204368FA
:1036900065636B20636F6E646974696F6E210D0AD8
:1036A0000000000070B5044654F8A40F0A21FCF78E
:1036B0006BFE451C2188691A89B26068401A6060F7
:1036C00044F8A45970BD08B5024601200090108D41
:1036D00000B900BF00BF002000901085022008BD87
:1036E0002DE9F0470B4614464FF0000C00BF2C4A62
:1036F0001268C2F302211D4626460A46C2F1070996
:10370000B9F1040F02D94FF0040901E0C2F1070931
:10371000C84602F10409B9F1070F02D24FF00009BF
:1037200001E0A2F103094F464FF0010909FA08F937
:10373000A9F1010909EA050909FA07F94FF0010A97
:103740000AFA07FAAAF1010A0AEA060A49EA0A0984
:10375000CC4601466246002904DB15072E0E114DAA
:103760006E5407E015072F0E0D4D0C3501F00F06B6
:10377000361FAF5500BF014600290DDB00BF00BF5B
:1037800001F01F050122AA404D09AD0005F1E02519
:10379000C5F8002100BF00BF00BFBDE8F0870000F2
:1037A0000CED00E000E400E000BF00F00702064B73
:1037B00019684FF6FF031940044B0B4343EA0221FB
:1037C000014B196000BF70470CED00E00000FA05E6
:1037D00070B588B004460D461A480068022801DA20
:1037E00008B070BD18480068082826DA2146174836
:1037F000008803F085FE064615480368F0B23112D2
:10380000EAB2CDE90603CDE904212812E1B2221281
:10381000104B1B78CDE90032CDE902100D4800882D
:1038200003120948082102680B48FDF7C1F9064850
:103830000068401C0449086000BF0448048000BFC1
:10384000CEE7000054010020600100207401002038
:1038500058010020640100205493000810B514485A
:10386000006870B100F050F838B112A000F074F8A0
:10387000FFF75AFE01F0D0F902E012A000F056F86E
:1038800010BD00F041F828B113A000F065F8FFF773
:103890004BFE0AE014A000F049F81948FDF788F93A
:1038A000FFF743FE1748FDF783F900BFE8E7000084
:1038B0007C010020696E697420746F206C696E6BE6
:1038C00020757000696E697420746F206C696E6B6E
:1038D00020646F776E000000646F776E20746F2035
:1038E0006C696E6B20757000757032646F776E2036
:1038F000746F206C696E6B20646F776E000000003F
:10390000F8930008A8930008014800687047000079
:1039100080010020002001490860704780010020DC
:1039200001200149086070478001002070B50446FD
:10393000FFF788F805462246294602A0FDF738F928
:1039400070BD00005B2573206D6F64655D202825C8
:1039500073290D0A00000000FEB50546FFF7EAFDD9
:103960000446FFF76FF80646E078A1786278CDE963
:103970000021029023782A46314602A0FDF718F96B
:10398000FEBD00005B2573206D6F64655D202825FA
:1039900073292025642E25642E25642E25640D0AA6
:1039A000000000002DE9F04105460E461C4807685E
:1039B0001C480068001D03F05AFA50B91948006805
:1039C00090F82C1001208840174909688143164857
:1039D0000160681C38B936B112480168091D1348E6
:1039E00003F083FA1AE07C190E4800684460BC4278
:1039F00007D20C480168091D0D48006803F05BFA06
:103A00000CE008480168091D0A48006803F053FAF1
:103A100009480068844201D207480460BDE8F0818B
:103A2000B00000209C000020B40000209005002081
:103A3000A4000020A0000020CC00002010B5044607
:103A400003F060FA24480068401C234908602348BA
:103A5000006840B9214804600846006801280DD17B
:103A600000F028F90AE01E48006838B91B480068D1
:103A7000C06AE16A884201D81848046019480068A1
:103A8000401C1849086008460068606494F82C10CF
:103A90000120884014490968084313490860E16A15
:103AA00001EB8101114A02EB8100211D03F01DFA97
:103AB00003F052FA0A48006868B108480068C06A12
:103AC000E16A884207D24FF0805009490860BFF38D
:103AD0004F8FBFF36F8F10BDAC0000209C00002003
:103AE000B8000020C8000020B4000020C002002060
:103AF00004ED00E010B516E003F004FA0C48C068CD
:103B0000C468201D03F0B3F90A480068401E094943
:103B1000086009480068401E0749086003F01CFA65
:103B2000204600F00BF8044800680028E4D110BDDE
:103B30007C050020AC000020A800002010B5044641
:103B4000206B03F027FA204603F024FA10BD000092
:103B500030B54FF42043174800F007042CB1C01DC6
:103B600020F00700134C041B1B1B0246124C226062
:103B70000024114D6C60D018083820F007000F4C5D
:103B8000206000240D4D2D686C600C4D2D682C605C
:103B90001146441A4C60094C24680C60084D4C686E
:103BA0002C60084D4C682C604FF00044064D2C6092
:103BB00030BD0000A4050020E0000020E800002047
:103BC000F0000020EC000020FC00002000BFFFF708
:103BD00091FF064800680128F9D94FF08050044948
:103BE0000860BFF34F8FBFF36F8FF0E7C002002074
:103BF00004ED00E02DE9F05F82460E4690469B46BC
:103C00000A9F0C9C4FEA8801A522206BFCF79EFBC3
:103C1000A8F10100216B01EB800929F0070909F0E7
:103C2000070008B9012000E0002050B900BF1020B3
:103C300080F31188BFF34F8FBFF36F8F00BF00BFBA
:103C4000FEE786B1002507E0715D04F134004155BF
:103C5000705D00B902E06D1C102DF5D300BF00218E
:103C60004320015502E0002084F83400202F00D3C7
:103C70001F27E762E76400202065201D03F018F984
:103C800004F1180003F014F92461C7F12000A061C9
:103C900064620020606584F858005A4651464846E0
:103CA00000F05EFA20600B9808B10B980460BDE844
:103CB000F09F000010B5002407E004EB84010F4AD8
:103CC00002EB810003F0E7F8641C202CF5D30C48CC
:103CD00003F0E1F80B4803F0DEF80B4803F0DBF8E3
:103CE0000A4803F0D8F80A4803F0D5F8044809490F
:103CF000086004480849086010BD0000C0020020A8
:103D00004005002054050020680500207C050020A7
:103D100090050020A0000020A400002010B501465E
:103D2000164800E0006803688B42FBD302464368F4
:103D300013448B4204D143684C68234443600146DA
:103D40000A464B6813440468A34211D10C4C036823
:103D50002468A34208D04B680468646823444B601D
:103D600003681B680B6005E0054B1B680B6001E0F6
:103D700003680B60884200D0016010BDE0000020A5
:103D8000E800002009480068006808B9012000E048
:103D9000002020B14FF0FF300549086005E00348DE
:103DA0000068C0680068024908607047A0000020F1
:103DB000CC0000200E480068401C08B9012000E03B
:103DC000002050B900BF102080F31188BFF34F8F3F
:103DD000BFF36F8F00BF00BFFEE700BF102080F36E
:103DE0001188BFF34F8FBFF36F8F00BF00BFFEE797
:103DF0001C00002001468A8B088B101A80B2704785
:103E0000F8B504460D46164601200090608818B1AA
:103E1000B0F5847F2ED11BE025B900BF0020608063
:103E20000120F8BD3046A847208215480068606030
:103E3000002084F8200000BF1248007800F0040041
:103E400008B13046A84700BF4FF48470608000BFBF
:103E50002046FEF74BF80746204600F079FA074067
:103E60000FB90020DDE700BF208A0028E4DC002035
:103E700084F820000020009060800220D1E700003C
:103E80000C010020180100202DE9F04104460D46E8
:103E900016462F46002084F820006082E760E66125
:103EA000B2B2394604F11400FDF76AFB002020800D
:103EB0006080BDE8F08100000146488A002801DDED
:103EC0000120704791F82000022804D1032081F8D6
:103ED00020000020F5E70448007800F0020008B157
:103EE0000120EEE70020ECE71801002038B5044679
:103EF0000D4601200090608818B1B0F59E7F35D145
:103F00000EE0A08B82B204F11400E168FDF738FBEB
:103F100000BF608AA0B900BF4FF49E70608000BFF0
:103F20002046FFF7C9FF08B9002038BD00BF0220B6
:103F300084F8200010480068A06010480088608263
:103F400004F1120304F108022946981CFDF7E5FA72
:103F500000F002000028DCD02046FFF74BFF28B914
:103F6000002084F8200000BF6080DEE70020009081
:103F700060800220D9E700000C010020140100201D
:103F80002DE9F84304460E461546374601200090B9
:103F9000608810B1E42826D110E02DB900BF0020C0
:103FA00060800120BDE8F88367602582002084F8E6
:103FB000200012E000BFE420608000BF2046FDF733
:103FC00095FF8046204600F0C3F908EA0008B8F1E2
:103FD000000F01D10020E5E700BF208A0028E9DCBE
:103FE000002084F820000020009060800220D9E7A3
:103FF000FEF734BC2DE9F04104464FF0000803F011
:1040000077F85148006808B9FFF7A2FD4F480068EB
:10401000204000287ED13CB304F10800A04223D9FF
:10402000083404F0070000B304F00700C0F10800F2
:104030002044A04216D904F00700C0F1080004444F
:1040400004F0070008B9012000E0002068B900BFB3
:10405000102080F31188BFF34F8FBFF36F8F00BF25
:1040600000BFFEE7002400E00024002C54D03848B4
:104070000068844250D8374E3046056801E02E462D
:104080002D686868A04202D228680028F7D12E481F
:104090000068854240D0306800F108082868306028
:1040A0006868001B102819D92F1907F0070008B9F4
:1040B000012000E0002050B900BF102080F31188DB
:1040C000BFF34F8FBFF36F8F00BF00BFFEE768687D
:1040D000001B78606C603846FFF720FE1C4968685A
:1040E0000968081A1A490860084600681A490968E8
:1040F000884203D216480068174908601349686867
:104100000968084368600020286014480068401C63
:10411000124900E000E0086003F00AFC08F0070024
:1041200008B9012000E0002050B900BF102080F342
:104130001188BFF34F8FBFF36F8F00BF00BFFEE743
:104140004046BDE8F0810000E8000020FC000020AF
:10415000EC000020E0000020F0000020F40000202F
:10416000001F4FF080730360001F21F00103036004
:10417000001F054B036014380260001F6FF002033C
:104180000360203870470000B53D00082DE9F0417C
:1041900004460F4615461E46605D022801D12A20BE
:1041A00000E020200346625D314608A0FCF700FDD8
:1041B000605D0A2808DB39462046FEF70FF801202B
:1041C00060550A20BDE8F0810020FBE7205F646DA8
:1041D00039303531662072786220253032782028D7
:1041E00074696D6573202532642925630D0A00000A
:1041F00070B504466678A078E17800EB012085B2BE
:1042000000BF06F0B70020B1314609A0FEF73EFA24
:1042100070BD00BF00BF40F2EE50854204DD29466C
:104220000CA0FEF733FAF3E700BF2846F0E70000E2
:104230005F646D39303531662072785F73746174F4
:104240007573206572726F72203A20307825303293
:10425000780D0A005F646D39303531662072785F01
:104260006C656E206572726F72203A2025750D0A9A
:104270000000000070B505462846FDF79FFF044684
:104280001CB121462846FEF7E3F8204670BD0246E1
:104290008A4201D1012070470020FCE710B50022BE
:1042A0008B071C0F0F2303FA04F28B1033B1012B81
:1042B00013D0022B23D0032B45D132E0234B1B68B4
:1042C0009343224C236023461B688C07240F00FA7B
:1042D00004F423431D4C236036E01C4B1B1D1B685C
:1042E00093431A4C241D236023461B688C07240F1C
:1042F00000FA04F42343154C241D236024E0134BDF
:1043000008331B689343114C0834236023461B6811
:104310008C07240F00FA04F423430C4C0834236068
:1043200012E00A4B0C331B689343084C0C34236097
:1043300023461B688C07240F00FA04F42343034C24
:104340000C34236000E000BF00BF10BD08380140FE
:1043500010B5044694F82000062804D10E480078D1
:1043600000F00400A8B1208A0C490968498A8842F3
:1043700006DD0A4A1268518A606802F089FC03E08F
:10438000218A606802F084FC062084F82000012065
:1043900010BD0020FCE70000180100201C010020D7
:1043A00038B5044601200090208D10B1732820D12B
:1043B00004E000BF00BF7320208500BF22460F49E4
:1043C00004F12800FFF71CFD08B9002038BD00BF2C
:1043D0009C200059D4F8A010411A9C20015154F897
:1043E000980FA168084444F898099C2000590028B7
:1043F000E0DC0020009020850220E7E7812800080B
:10440000F8B504460E4601200090208DB0F5937F4C
:104410006DD008DCA0B1A0F21710B0B106282ED0E4
:104420000B2839D14AE0B0F5957F7CD0B0F5977F65
:104430006CD0B0F5997F6AD0B0F59B7FF1D1B7E031
:1044400000BF40F21710208500BF3046FBF7A6FFE3
:1044500007463A46314604F12800FFF791FD08B9B6
:104460000020F8BD00BF2E2104F18200FBF7B5FF4C
:10447000054695B900BF40F21D10208500BF564883
:10448000FBF78CFF07463A46534904F12800FFF733
:1044900077FD08B90020E4E798E0052229464F4857
:1044A000FBF78CFF28B1062229464D48FBF786FF13
:1044B00090B900BF4FF49170208500BF4948FBF7C9
:1044C0006DFF07463A46474904F12800FFF758FDBB
:1044D00008B90020C5E779E0042229464248FBF7E5
:1044E0006DFFA8B900BF4FF49370208500BF3F480F
:1044F000FBF754FF07463A463C4904F12800FFF712
:104500003FFD08B90020ACE760E00CE024E03CE0AF
:10451000042229463648FBF751FF90B900BF4FF4FB
:104520009570208500BF3348FBF738FF07463A46B1
:10453000304904F12800FFF723FD08B9002090E777
:1045400044E0042229462C48FBF738FF90B900BF0D
:104550004FF49770208500BF2848FBF71FFF0746E0
:104560003A46264904F12800FFF70AFD08B9002061
:1045700077E72BE0042229462148FBF71FFF90B97B
:1045800000BF4FF49970208500BF1E48FBF706FF5F
:1045900007463A461B4904F12800FFF7F1FC08B929
:1045A00000205EE712E000BF4FF49B70208500BF43
:1045B0001548FBF7F3FE07463A46134904F1280075
:1045C000FFF7DEFC08B900204BE700BF0020009099
:1045D0002085022045E700003A8E0008658E00081D
:1045E0006B8E0008928D0008778E0008AE8D000853
:1045F0007C8E0008E58D0008818E0008018E000881
:10460000868E00081D8E0008758D000830B58BB0B1
:10461000044601200590208D992874D011DC912842
:1046200068D007DC00B38A2822D08C282FD09028AD
:104630006AD14DE094287FD0952867D09828F7D18B
:10464000B1E0A8287ED008DC9C287CD09D287BD0B7
:10465000A1287AD0A528EBD106E1AC2876D0B028E5
:1046600075D0B428E4D13AE100BF8A20208500BF8C
:104670008422A24904F12800FFF782FC10B900202F
:104680000BB030BD00BF00BF8C20208500BF4E2284
:104690009B4904F12800FFF773FC08B90020EFE7FD
:1046A00000BF9848407997490979964AD278954B46
:1046B0009B78CDE90032CDE9021092484378027828
:1046C00091A106A8FCF79CFA00BF9020208500BFAE
:1046D00006A8FBF763FE05462A4606A904F1280052
:1046E000FFF74EFC08B90020CAE700BF00BF9120C9
:1046F000208500BF15228EA104F12800FFF740FCA1
:1047000028B90020BCE760E0F3E015E02DE000BF31
:104710008D484088000A8C498978CDE900108A4884
:104720000088030A8848027888A106A8FCF768FA7E
:1047300000BF9420208500BF06A8FBF72FFE05468A
:104740002A4605E09EE05EE06FE07FE0ABE0B8E087
:1047500006A904F12800FFF713FC08B900208FE731
:1047600000BF00BF9520208500BF1A227DA104F163
:104770002800FFF705FC08B9002081E700BF80484A
:104780004088000A7E498978CDE900107C4800887D
:10479000030A7B4802786DA106A8FCF731FA00BF36
:1047A0009820208500BF06A8FBF7F8FD05462A469D
:1047B00006A904F12800FFF7E3FB08B900205FE732
:1047C00000BF00BF9920208500BF17226DA104F112
:1047D0002800FFF7D5FB08B9002051E700BF6F485C
:1047E0004088000A6D498978CDE900106B4800883F
:1047F000030A6A48027855A106A8FCF701FA00BF2F
:104800009C20208500BF06A8FBF7C8FD05462A4668
:1048100006A904F12800FFF7B3FB08B900202FE731
:1048200000BF00BF9D20208500BF44225C4904F1E9
:104830002800FFF7A5FB08B9002021E700BF594871
:10484000006868B100BFA120208500BF102256A1DA
:1048500004F12800FFF794FB08B9002010E70DE0F1
:1048600000BFA520208500BF092254A104F1280023
:10487000FFF786FB08B9002002E700BF00BFA820B1
:10488000208500BF2A2250A104F12800FFF778FB01
:1048900008B90020F4E600BF4248006868B100BFD4
:1048A000AC20208500BF0A2252A104F12800FFF7A6
:1048B00067FB08B90020E3E60DE000BFB0202085CB
:1048C00000BF11224EA104F12800FFF759FB08B9DF
:1048D0000020D5E600BF00BFB420208500BF3122F4
:1048E0004CA104F12800FFF74BFB08B90020C7E6F4
:1048F00000BF0020059020850220C1E6F08F00084F
:1049000078900008907A0008253032783A253032C5
:10491000783A253032783A253032783A2530327874
:104920003A253032783C2F74643E3C2F74723E003E
:104930003C74723E3C74643E49503A203C2F74648F
:104940003E3C74643E0000000001002025642E25DA
:10495000642E25642E25643C2F74643E3C2F7472B3
:104960003E0000003C74723E3C74643E47617465D6
:104970007761793A203C2F74643E3C74643E0000B9
:10498000040100203C74723E3C74643E4D41534B24
:104990003A203C2F74643E3C74643E0008010020C1
:1049A000A88F000804000020636865636B656420BD
:1049B0002F3E4C4544204F4E00000000202F3E4C1F
:1049C0004544204F4E0000003C696E7075742074A1
:1049D0007970653D22726164696F22206E616D6538
:1049E0003D22737769746368222076616C75653D3A
:1049F00030200000202F3E4C4544204F464600000A
:104A0000636865636B6564202F3E4C4544204F46C8
:104A1000460000003C696E70757420747970653DC5
:104A2000227375626D6974222076616C75653D2212
:104A3000436F6E6669726D22202F3E3C2F74643E78
:104A40003C2F74723E00000038B5044601200090EF
:104A5000208D10B17F2810D103E000BF7F2020857A
:104A600000BF04F12800D4F8A020D4F89810FFF774
:104A700087FA08B9002038BD00BF002000902085CB
:104A80000220F8E70021017041708170C17001714E
:104A9000417181710121C1717047026861F3861211
:104AA000026070470146C86880B27047C1607047B5
:104AB0000246002093680B4003B900E001207047D4
:104AC000C26922F40062C2610A7862B9026822F403
:104AD00000420260026822F480420260026822F40E
:104AE0008062026036E00A78012A0ED1026822F460
:104AF00000420260026822F480420260026822F4EE
:104B0000806202F58062026024E00A78022A0ED1F7
:104B1000026822F4004202F500420260026822F4B8
:104B200080420260026822F48062026012E00A7829
:104B3000032A0FD1026822F4004202F5004202600B
:104B4000026822F4804202F580420260026822F488
:104B500080620260CB79026863F3492202604A787E
:104B6000012A09D1CA79012A06D1026822F4807289
:104B700002F58072026003E0026822F48072026033
:104B80004B78026863F3820202608A78072A0DDCA0
:104B9000426822F400724260426822F480724260ED
:104BA0008B78026863F3C502026020E08A780A2AE3
:104BB0000ED1426822F4007202F50072426042682F
:104BC00022F480724260026822F0380202600EE035
:104BD000426822F400724260426822F4807202F558
:104BE000807242608A78036862F3C5030360CB7801
:104BF000026863F3C71202600B79026863F3CB2289
:104C000002604B79026863F3410202608B790268AB
:104C100063F30002026070472DE9FF4144A0FBF7F7
:104C2000C7FF4FA0FBF7C4FF5548407954490979A5
:104C3000534AD278CDE900210290514883784278D6
:104C4000017850A0FBF7B4FF00BF5A480088ADF8C8
:104C50000C0058484088ADF80E0000BFBDF80E00AB
:104C6000FEF7B6FBC4B2BDF80E00FEF7B1FB0512AD
:104C7000BDF80C00FEF7ACFBC6B2BDF80C00FEF7A9
:104C8000A7FB07122B46324639464BA00094FBF790
:104C90008FFF00BF50480088ADF80C004E48408898
:104CA000ADF80E0000BFBDF80E00FEF791FBC4B2D8
:104CB000BDF80E00FEF78CFB0512BDF80C00FEF7E8
:104CC00087FBC6B2BDF80C00FEF782FB07122B462D
:104CD0003246394641A00094FBF76AFF00BF4748BF
:104CE0000088ADF80C0045484088ADF80E0000BFC4
:104CF000BDF80E00FEF76CFBC4B2BDF80E00FEF767
:104D000067FB0512BDF80C00FEF762FBC6B2BDF8EA
:104D10000C00FEF75DFB07122B463246394638A0E1
:104D20000094FBF745FF02A0FBF742FFBDE8FF81BF
:104D30002D2D2D2D2D2D2D2D2D2D2D2D2D2D2D2DA3
:104D40002D2D2D2D2D2D2D2D2D2D2D2D2D2D2D2D93
:104D50002D2D2D2D2D2D2D2D2D2D2D2D2D0D0A00F3
:104D60004E6574776F726B20636869703A204441B6
:104D70005649434F4D20444D39303531200D0A00FE
:104D8000907A00084D414320416464726573733A20
:104D900020253032583A253032583A253032583AA8
:104DA000253032583A253032583A25303258200DC5
:104DB0000A00000000010020486F73742049502051
:104DC000416464726573733A2025642E25642E2530
:104DD000642E2564200D0A00080100204E657477BA
:104DE0006F726B204D61736B3A2025642E25642E03
:104DF00025642E2564200D0A000000000401002017
:104E00004761746577617920495020416464726517
:104E100073733A2025642E25642E25642E25642084
:104E20000D0A000038B504460D4601200090208D83
:104E300018B1B0F5877F1CD111E0B4F8AC0000EBDD
:104E4000001000EB40000D4901EB8000407E00F0B7
:104E50000F0070B100BF4FF48770208500BF22465D
:104E6000074904F12800FEF7CBFF08B9002038BD40
:104E700000BF0020009020850220F8E7A8AB0020AA
:104E8000C928000810B501212248FCF7EDFC224892
:104E9000006920F00700401C1F4908611F48006896
:104EA00020F00300401C1D490860FCF71DFD012196
:104EB0000846FCF7F7FB00BFFCF7BEFC0028FBD060
:104EC000022301227D211046FCF7F4FC012102207F
:104ED000FCF7E8FB00BF1920FCF796FC0128FAD18B
:104EE0000020FCF7ADFB0420FCF7BEFB0420FCF720
:104EF000B1FB0120FCF7C2FB0220FCF72FFD00BF35
:104F0000FCF736FD0228FBD10020FCF7B7FB00F0D0
:104F100007F810BD1C00400000700040603C0240DB
:104F20002DE9FE4F002500260027AB46A84600BF0E
:104F300000BFA248D0F800A0FCF71AFD029002982A
:104F400020B1012855D0022877D177E09C4800682D
:104F5000C0F38030002828D099480068C0F30030A2
:104F600018B398489549086097490968C1EBC10191
:104F700001EB4101954A02EB8101081D8F49524620
:104F80000B6893A1FBF73CFE8F480068401C8E49DC
:104F90000860084601680068401EC0EBC00000EBD6
:104FA00040008A4A42F8201022E09948834908606C
:104FB00085490968C1EBC10101EB4101834A02EB5C
:104FC0008101081D7D4952460B6892A1FBF718FE2E
:104FD0007D480068401C7C490860084601680068FC
:104FE000401EC0EBC00000EB4000784A42F82010A1
:104FF000AFE087487149086073490968C1EBC10196
:1050000001EB4101714A02EB8101081D6B495246D7
:105010000B6890A1FBF7F4FD6B480068401C6A49DF
:105020000860084601680068401EC0EBC00000EB45
:105030004000664A42F820108BE066E060489C38E9
:105040000068C0F3805B5E489C380068C0F3881538
:105050005B489C38006800F00F0659489C3800688F
:10506000C0F302408A490F5CBBF1000F02D1DFF8A8
:10507000A08101E0DFF898815349CDE90067096814
:10508000C1EBC10101EB4101504A02EB8101081D56
:105090002B4642467F49FBF7B3FD4B480068401C56
:1050A00049490860084601680068401EC0EBC0001E
:1050B00000EB4000454A42F8201008FB05F006FBD3
:1050C00007F1B0FBF1F03D4908603F490968C1EBC9
:1050D000C10101EB410102EB8101081D3749524634
:1050E0000B686DA1FBF78CFD37480068401C364902
:1050F0000860084601680068401EC0EBC00000EB75
:105100004000324A42F8201023E041482B49086011
:105110002D490968C1EBC10101EB41012B4A02EBAA
:105120008101081D254952460B6868A1FBF768FDFF
:1051300025480068401C244908600846016800684A
:10514000401EC0EBC00000EB4000204A42F8201097
:1051500000BF00BF1948D0F800A01948983800686F
:10516000C0F30319664810F8094014480068E0408D
:1051700012490860144900940968C1EBC10101EBB0
:105180004101124A02EB8101081D0C4952460B688D
:105190005C49FBF735FD0C480068401C0A49086073
:1051A000084601680068401EC0EBC00000EB4000EC
:1051B000064A42F82010BDE8FE8F00009000002053
:1051C000A0380240006CDC0294000020C4010020E2
:1051D00073636C6B5F736F757263652C2043524D04
:1051E0005F53434C4B5F4849434B3A20257520633E
:1051F000616C632D746F20257520284849434B5FEF
:1052000056414C5545202A2036290D0A0000000041
:1052100000127A0073636C6B5F736F757263652C39
:105220002043524D5F53434C4B5F4849434B3A2018
:1052300025752063616C632D746F202575202848C7
:1052400049434B5F56414C5545202A2031290D0AD0
:105250000000000073636C6B5F736F757263652C85
:105260002043524D5F53434C4B5F484558543A20BE
:1052700025752063616C632D746F20257520284887
:105280004558545F56414C5545290D0A0000000011
:10529000827A0008648F000873636C6B5F736F75AC
:1052A0007263652C2043524D5F53434C4B5F504C0F
:1052B0004C3A2025752063616C632D746F20257531
:1052C0002028706C6C5F6672290D0A0073636C6B2A
:1052D0005F736F757263652C2064656661756C74AD
:1052E0003A2025752063616C632D746F202575202D
:1052F000284849434B5F56414C5545290D0A00004B
:10530000727A0008208F000810B50748006880886E
:10531000B0F5A04F02D1FEF761F800E000BF00BF7A
:1053200000BF00BF00BF10BD1C01002010B5044627
:10533000FCF757F92168401A6168884201D30120BF
:1053400010BD0020FCE7D0E9001211440160704755
:1053500070B504460D466560FCF743F9206070BDEA
:1053600070B505460C4629460220FDF78EFD0EE07D
:10537000641E0120FCF75FFD0220FDF752FC00F0E7
:10538000010000B970BD14B903A0FBF711FC002C9B
:10539000EED100BFF6E7000074785F63686B5F745E
:1053A000696D656F75742875696E7433325F74202A
:1053B00074696D656F75745F757329202D2D204399
:1053C0006865636B20636F6E646974696F6E210D2D
:1053D0000A00000070B504460D4629462046FCF739
:1053E0005DFF70BD10B50446FCF786FF2046FCF754
:1053F00067FF10BD00BF00BF00BF7047C2780A44FE
:10540000194BDA70827802EB21229A7042785A7036
:1054100002781A701A469278B2EB212F0ADA1A46ED
:105420005278521C5A701A4652781AB91A46127893
:10543000521C1A700C4AD278CBB29A4212DA0A4A3B
:105440009278521C084B9A701A46927852B91A46B2
:105450005278521C5A701A4652781AB91A46127863
:10546000521C1A70704700002C01002010B5044631
:1054700021460D4800680830FFF7C0FF0B48007850
:10548000094909680872094841780748006841726B
:10549000064881780448006881720448C17802484F
:1054A0000068C17210BD00001C0100202C0100200A
:1054B00010B5354800882A2803D2002032490880D8
:1054C00010BD0020304908803048808AB0F5807FC8
:1054D00003D0B0F5007F54D141E02C48C08C2C495A
:1054E000098888423AD12948008D2949498888424B
:1054F00034D126491631881D00F066F94FF400704A
:10550000224988820846D1F816200262498B81849C
:1055100020490A68C0F81620898841831D490A6815
:10552000C0F806208988418101460A6A0260898C98
:105530008180808B1549C8840846C18B0185144839
:10554000008812498883124841881048C1834FF46B
:10555000C1600E4988812A200B49088011E00B4860
:10556000C08C0B49098888420AD10848008D084937
:105570004988884204D105491631881D00F024F974
:1055800000BF00BF00BF9BE714010020A4A50020BE
:1055900000010020907A000800200B4908700DE0FF
:1055A0000948007800EB4000084901EB8000002129
:1055B000016005480078401C0349087002480078E3
:1055C0000828EDDB704700003801002084B000207F
:1055D00010B55B48C08B5B49098888420CD158489C
:1055E000008C58494988884206D1554856490A686E
:1055F00002608988818091E05148C08B53490988B5
:10560000084053490988514A1288114088420BD1F9
:105610004B48008C4D49498808404D4949884B4AC0
:1056200052881140884208D000BF4A4800884A4941
:10563000088048484088488008E000BF4048C08B48
:10564000454908803E48008C488000BF00204349FF
:10565000087016E04148007800EB4000404901EB3B
:1056600080043D4800882188884205D13A48408816
:105670006188884200D108E038480078401C3749EA
:105680000870364800780828E4DB00BF334800780B
:1056900008283ED1FF2206212948FAF757FE28485C
:1056A0000021016281842F490A68C0F80620898898
:1056B00041812C490A68C0F816208988418300BFBF
:1056C000254800881E49C884234841881C48018514
:1056D00000BF00BF1E480088194988831C484188C4
:1056E0001748C18300BF4FF4807015498882C88174
:1056F00008200882062088740420C8744FF4C16012
:10570000888101F13600184908602A20174908806D
:1057100010BD0B48616801602189818008481149EA
:105720000A68C0F8062089884181082004498881D8
:105730000E4800880E300D49088000BFE8E70000E1
:10574000A4A500209C7A0008967A00080801002091
:105750000001002004010020340100203801002055
:1057600084B00020907A00080C0100201401002071
:1057700012490978491C114A11700021104A117010
:1057800017E00F49097801EB41010E4A02EB810055
:1057900001884288114339B1817A084A1278511A36
:1057A000782901DB0021016005490978491C044A78
:1057B0001170034909780829E3DB70473A0100209A
:1057C0003801002084B0002010B502460023424C6E
:1057D00023701FE0404B1B7803EB43033F4C04EB6B
:1057E000830003888BB143887BB113880488A3426C
:1057F0000BD153884488A34207D10B6843608B8840
:105800000381374B1B78837210BD334B1B785B1CB5
:10581000314C2370304B1B78082BDBDB00232E4CE4
:10582000237010E02C4B1B7803EB43032B4C04EB51
:105830008300038813B9438803B908E0264B1B781B
:105840005B1C254C2370244B1B78082BEADB00BF24
:10585000214B1B78082B34D10023224C2370224C7F
:1058600023701D4C23701DE01B4B1B7803EB43037F
:105870001A4C04EB8300837A194C2478E31A194CF0
:105880002478A34209DD837A154C2478E31A154C59
:105890002370114B1B78144C23700F4B1B785B1C2F
:1058A0000D4C23700C4B1B78082BDDDB0E4B1B784B
:1058B000094C237023461B7803EB4303074C04EB8E
:1058C0008300136803600B6843608B880381044B7B
:1058D0001B78837200BF97E73801002084B0002056
:1058E0003A0100203B01002039010020002021491D
:1058F00008700AE0002020491E4A127821F81200A0
:105900001C480078401C1B4908701A48007805287C
:10591000F0DB0020174908700FE0002015490978D6
:1059200001EB011101EB4101144A02EB81014876C0
:1059300010480078401C0F4908700E480078052870
:10594000EBDB4FF480600E490880002009490870A5
:105950000BE000200B49074A127801EB0211888006
:1059600004480078401C03490870024800780A285F
:10597000EFDB704730010020A4AF0020A8AB00206F
:105980002A010020B0AF002010B5142206490020E3
:10599000FBF704FE044614B94FF6FF7010BD204615
:1059A000FDF716FDFAE70000B2A5002000210D4A20
:1059B000117010E00C490B4A127831F8121029B915
:1059C0000949084A127821F81200704705490978F8
:1059D000491C044A1170034909780529EADB00BF14
:1059E000F3E7000030010020A4AF002010B504460A
:1059F000214602A0FBF7DCF810BD000075495020DD
:105A00006C6F67206D6573736167653A2025730D50
:105A10000A00000070B50546FD480468042D00D159
:105A2000D9E2FC48FC490860FC490860032D12D10A
:105A3000FBA0FBF7BDF8607E00F00F00032808D143
:105A4000208A30B90820FE490870FFF75DFC00F09D
:105A500090BF01F00FB9022D74D1FA48C078401CF4
:105A6000C0B2F849C87078B908468078401CC0B206
:105A7000887048B908464078401CC0B2487018B9D0
:105A800008460078401C08700020EF490880EF4964
:105A90000880607E072802D0607E052808D1A07E9D
:105AA000401CA076A07E782861D1002060765EE060
:105AB000607E00285BD0208A00284DD0A17E481E41
:105AC000A076002953D1E07E082808D0607E022805
:105AD00002D0607E012810D1E07E05280DD1002083
