:020000040800F2
:1000000038B80020E1020008A90A0008A10A000887
:10001000A50A0008AB090008610B000800000000F9
:1000200000000000000000000000000021020008A5
:100030007B0A0008000000007D020008C50A0008D5
:10004000FB020008FB020008FB020008FB0200089C
:10005000FB020008FB020008FB020008FB0200088C
:10006000FB020008FB020008FB020008FB0200087C
:10007000FB020008FB020008FB020008FB0200086C
:10008000FB020008FB020008FB020008FB0200085C
:10009000FB020008FB020008FB0200087D0A0008C2
:1000A000FB020008FB020008FB020008FB0200083C
:1000B000FB020008FB020008FB020008FB0200082C
:1000C000FB020008FB020008FB020008FB0200081C
:1000D000FB020008FB020008FB020008FB0200080C
:1000E000FB020008FB020008FB020008FB020008FC
:1000F000FB020008FB020008FB020008FB020008EC
:10010000FB020008FB020008FB020008FB020008DB
:10011000FB020008FB020008FB020008FB020008CB
:10012000FB020008FB020008FB020008FB020008BB
:10013000FB020008FB020008FB020008FB020008AB
:10014000FB020008FB020008FB020008FB0200089B
:10015000FB020008FB02000800000000FB02000890
:10016000FB020008FB020008000000000000000085
:10017000FB020008FB020008FB0200080000000070
:1001800000000000FB020008FB020008FB02000860
:10019000FB0200080000000000000000000000005A
:1001A000000000000000000000000000FB0200084A
:1001B000FB02000800000000FB0200080000000035
:1001C000000000000000000000000000000000002F
:1001D0000000000000000000FB020008FB02000815
:1001E000FB020008FB020008FB020008FB020008FB
:1001F000FB020008FB020008FB020008FB020008EB
:10020000FB020008FB020008FB020008DFF80CD02C
:1002100000F000FB004800475D36000838B80020B9
:100220002C4B19680868B0E8F04F80F30988BFF3D9
:100230006F8F4FF0000080F31188704700000000BE
:1002400008480068006880F308884FF0000080F3D9
:10025000148862B661B6BFF34F8FBFF36F8F00DFB4
:1002600000BF00BF08ED00E0DFF80C00016841F4BA
:1002700070010160704700BF88ED00E0EFF3098076
:10028000BFF36F8F134B1A681EF0100F08BF20EDDD
:10029000108A20E9F04F106009B44FF0100080F38D
:1002A0001188BFF34F8FBFF36F8F06F0DBFF4FF066
:1002B000000080F3118809BC19680868B0E8F04FA5
:1002C0001EF0100F08BFB0EC108A80F30988BFF34E
:1002D0006F8F704798000020EFF305807047000093
:1002E0000648804706480047FEE7FEE7FEE7FEE7D0
:1002F000FEE7FEE7FEE7FEE7FEE7FEE7D10A0008BD
:100300000D0200080649074A0868504343F23902C3
:1003100010440860400870470149086070470000B9
:10032000B80100206D4EC64140EA01039B0703D08F
:1003300009E008C9121F08C0042AFAD203E011F824
:10034000013B00F8013B521EF9D27047D2B201E0E6
:1003500000F8012B491EFBD270470022F6E710B5CA
:1003600013460A4604461946FFF7F0FF204610BD23
:1003700010B5044604E00B7800F8013B03B1491CBA
:10038000521EF8D2204610BDCAB2401E10F8011FFE
:100390008A4202D00029F9D100207047421C10F88F
:1003A000011B0029FBD1801A704710B5002200E024
:1003B000521C835C8C5CA34201D1002BF8D1D8B2D3
:1003C000E1B2401A10BD034611F8012B00F8012BD1
:1003D000002AF9D11846704730B50546002003467B
:1003E00000E05B1C934205D2EC5CC85C201A01D192
:1003F000002CF6D130BD0246C9B200E0401C0378A3
:10040000002BFBD102E003788B4203D0401E9042C8
:10041000F9D20020704730B50B460146002020225B
:10042000012409E021FA02F59D4205D303FA02F501
:10043000491B04FA02F52844151EA2F10102F1DC61
:1004400030BD2DE9F05F0546002092469B46884668
:100450000646814640241BE0284641464746224640
:1004600000F0F9F953465A46C01A914110D311468B
:100470001846224600F0E0F92D1A67EB01084F46B6
:1004800022460120002100F0D7F917EB00094E4168
:10049000201EA4F10104DFDC484631462A464346CB
:1004A000BDE8F09F2DE9FE4F804681EA0300C00FB2
:1004B0000C46009021F0004123F00045B8EB02000B
:1004C000A94105D24046214690461C460B460246AD
:1004D00023F00040104347D0270DC7F30A00C3F3B1
:1004E0000A510290401A019040286BDAC3F31300BE
:1004F00040F4801B0098924620B10023D2EB030AFF
:1005000063EB0B0B01985946C0F14002504600F0D6
:1005100093F906460D4650465946019A00F0ABF94C
:1005200010EB08006141002487EA115284EAE77366
:100530001A4340D0009A62B3019A012A4FEA075247
:1005400015DC001B61EB02014FF0004202EA07528A
:10055000CDE90042001C41F5801132462B4600F0E7
:10056000ABF903B0BDE8F08F40462146F9E7001B28
:1005700061EB0201001C41F5801300185B4120185B
:10058000A2F5001747EB030140EAD570B6196D419B
:1005900011E06D084FEA360645EAC0754FEA07528A
:1005A000001B61EB0201001C41F5801149084FEA74
:1005B00030000019514132462B4603B0BDE8F04FE0
:1005C00000F06BB90098012240000023D0EB02023A
:1005D00063EBE073009821464FEAE074B8EB00004B
:1005E00061EB0401E9E783F000435BE781F0004140
:1005F00058E72DE9FE4F81EA030404F0004421F09E
:10060000004100944FF0000B23F0004350EA010436
:100610005ED052EA03045BD0C3F30A54C1F30A5517
:100620002C44A4F2F3340194A0FB0254C1F313014F
:1006300041F48011C3F3130343F4801301FB02441C
:1006400000FB034E840A970A44EA815447EA835721
:10065000A4FB076802958D0A05FB07854FEA932CDA
:1006600004FB0C542705029D4FEA065847EA16374B
:10067000B5EB08056EEB070C870E920E47EA811763
:1006800042EA8312A7FB0201B6EB0B0164EB000404
:100690002B0D43EA0C335E1844EB1C50DA465146EE
:1006A000E7FB0201C5F313044FEA0B3343EA14538B
:1006B0004FEA0432019C43EA0603A4F10C040294BD
:1006C000009CCDE900B400F0F7F803B0BDE8F08F6E
:1006D00000200146F9E72DE9F04D81EA030404F01A
:1006E000004B21F0004514464FF0000A23F0004172
:1006F00050EA050220D054EA01021DD0C5F30A5782
:100700000246C5F31303C1F31300C1F30A5640F4C4
:10071000801543F48013A7EB0608101BD64608F299
:10072000FD3873EB050002D308F1010801E09218CF
:100730005B41B8F1000F03DA00200146BDE8F08DFF
:1007400000204FF48011064684460EE0171B73EB21
:10075000050705D3121B63EB050306434CEA010CA6
:1007600049084FEA300092185B4150EA0107EDD189
:1007700052EA030012D082EA040083EA050108432A
:1007800005D0101BAB4106D20122002306E0002257
:100790004FF0004302E06FF0010253101AEB060025
:1007A0004CEB085110EB0A0041EB0B01BDE8F04D9A
:1007B00000F073B8C1F30A52C1F3130140F2FF33E2
:1007C00041F480119A4202DA00200146704740F25B
:1007D00033439A42A2F2334202DC524200F03BB869
:1007E00000F02AB830B5041E71F1000404DB4FF0AC
:1007F0000044404264EB0101141E73F1000405DB68
:100800001C464FF00043524263EB0403994208BF79
:10081000904230BD064C074D06E0E06840F0010311
:1008200094E8070098471034AC42F6D3FFF7F2FC87
:100830003C9400085C940008202A04DB203A00FA6B
:1008400002F1002070479140C2F1200320FA03F327
:10085000194390407047202A04DB203A21FA02F025
:100860000021704721FA02F3D040C2F120029140EA
:10087000084319467047202A06DBCB17203A41FA75
:1008800002F043EAE07306E041FA02F3D040C2F11D
:100890002002914008431946704710B5141E73F1A9
:1008A000000408DA401C41F1000192185B411A4330
:1008B00001D120F0010010BD2DE9F04D92469B467C
:1008C00011B1B1FA81F202E0B0FA80F22032904622
:1008D000FFF7B2FF04460F4640EA0A0041EA0B0167
:1008E00053465A46084313D0114653EA010019D023
:1008F000C8F140025046FFF7AEFF05460E4650468F
:1009000059464246FFF798FF084305D0012004E00E
:1009100020463946BDE8F08D0020054346EAE076E2
:100920002C4337430A986305E40AA0EB0800002231
:10093000FD0A44EA47540A3002D500200146E9E79F
:10094000010510196941DDE9084500196941BDE853
:10095000F04DA2E770B58C1810F8015B15F0070395
:1009600001D110F8013B2A1106D110F8012B03E048
:1009700010F8016B01F8016B5B1EF9D12B0705D450
:100980000023521E0DD401F8013BFAE710F8013B99
:10099000CB1A921C03E013F8015B01F8015B521EB5
:1009A000F9D5A142D8D3002070BD00BFFEE710B535
:1009B000044601F055FB204601F08AFB10BD000003
:1009C00010B502F027FE08B102F010FC01480088C3
:1009D00010BD00001001002010B501F08FFBC0B168
:1009E00002F0FEFD00BF002409E001F0CFFAFFF79E
:1009F000E7FF18B101F084FA641C00E000E0F4E7BE
:100A000000BF204601F0CCFA01F088FB00BF0120B6
:100A100010BD0020FCE738B504462146684601F0C9
:100A2000A5FB38BD70B504460D4616463146204636
:100A300001F064FA0CB9002070BD3146284606F07A
:100A40000BFDF9E7014600221AB94878C0F380107F
:100A50007047012A03D14879C0F38000F8E70120EC
:100A6000F6E710B50446204601F068FB2046FFF784
:100A7000E9FF08B901F0E2FC10BD704710B502F0C3
:100A8000BDF8044601F09EFE48B102F0B7F80346F7
:100A900002F0E6F802F0B2F8044601F08DFE10BD57
:100AA00000BFFEE700BFFEE770470FB408B503A81C
:100AB00000900099029800F055F80020009001B0D5
:100AC0005DF814FB10B501F0A9FA06F083FD10BD26
:100AD0001F48006840F470001D4908601D48006808
:100AE00020F00100401C1B49086000BF1948006845
:100AF000C0F340000028F9D016480830006820F004
:100B0000030014490831086000BF1248083000682B
:100B1000C0F381000028F8D10E49083108600D4863
:100B200000680D4908400B4908600C48091D086021
:100B300000200849A03108604FF41F0005490C311E
:100B400008604FF00060024980390860704700007B
:100B500088ED00E000380240FFFFF2FE02300300A3
:100B600000BFFEE70FB4054B10B503A9044A029875
:100B700000F006F910BC5DF814FB000079280008AD
:100B80007C0000200FB41CB50246002007AC0029F1
:100B90000BD0491ECDE90021054B6A462146069837
:100BA00000F0EEF8009A002111701CBC5DF814FBF7
:100BB000AF1400080FB4084B10B504A902AA03989B
:100BC00000F0DEF8044602A9002000F07BFC20467D
:100BD00010BC5DF814FB0000C514000802E008C852
:100BE000121F08C1002AFAD170477047002001E0A7
:100BF00001C1121F002AFBD1704700002DE9FF5FE1
:100C000082B00021DDE90430020DDDF840B003437D
:100C100018D044F61050A2F2FF3242431514119836
:100C200001281FD0A5EB0B00401C5FEA000A4FF023
:100C300000064E4FDFF83891B046504615D5CAF140
:100C4000000413E0119801244AA3012801D16FEA9E
:100C50000B010298119AC0E90031C0E9024206B0C6
:100C6000BDE8F09FCBF10000DFE704460021404AD9
:100C7000491842EB0450CDE9001012E0E00707D01C
:100C800032463B4640464946FFF7B3FC804689461C
:100C900032463B4610461946FFF7ABFC06460F4668
:100CA0006410002CEAD1DDE90401DDE90023BAF18A
:100CB000000F06DAFFF79DFC42464B46FFF799FC12
:100CC00005E0FFF708FD42464B46FFF704FD0446EA
:100CD0000E460022284BFFF785FD03D84FF0FF306A
:100CE000014607E00022254B20463146FFF7DAFB9C
:100CF000FFF760FD102409E0002C0ADB0A22002324
:100D0000FFF79FFB039B30321A55641E50EA010225
:100D1000F2D1641C039AC4F111031444119A012AFC
:100D200003D0012208430DD10AE0084304D000207B
:100D30004FF0110B119072E7A3EB0B056D1E0DE048
:100D40005B4504DD4FF0000205F1010504E003DA24
:100D50004FF00002A5F10105002AECD0029811998C
:100D6000C0E90231C0E9004579E700000000144005
:100D70000000F03F300000000000F0430000E03FC2
:100D80002DE9FF4F95B09B468946064600250FE2A8
:100D9000252877D100242746F84A0121059400E050
:100DA000044316F8013F203B01FA03F01042F7D14B
:100DB00030782A2811D06FF02F033078A0F130025C
:100DC000092A16D8059A44F0020402EB820203EBCA
:100DD00042021044761C0590EFE759F8042B059267
:100DE000002A03DA504244F40054059044F002040F
:100DF000761C30782E2816D116F8010F44F0040422
:100E00002A280DD06FF02F023078A0F13003092B83
:100E100009D807EB870302EB4303C718761CF3E7F7
:100E200059F8047B761C30786C280FD006DC4C28EF
:100E300017D068280DD06A2814D104E0742810D087
:100E40007A280FD10DE044F400140AE044F4801431
:100E500001E044F440147278824202D104F5801417
:100E6000761C761C307866280BD013DC582877D097
:100E700009DC002875D04528F6D04628F4D047284C
:100E80001AD19DE118E0632835D0642879D065280F
:100E900012D195E1702873D008DC6728F1D0692859
:100EA0006FD06E280DD06F2806D1B5E073282CD0F6
:100EB000752875D0782874D05A46179990476D1CBC
:100EC00075E1C4F30250022809D003280DD0D9F8E7
:100ED000001004280DD00D6009F1040967E1D9F86C
:100EE0000010EA17C1E90052F6E7D9F800100D80AA
:100EF000F2E70D70F0E719F8041B8DF800100020E0
:100F00008DF80100EA46012003E059F804AB4FF0E8
:100F1000FF3061074FF0000102D40DE008F101013C
:100F20008846B9420FDA8045F8DB1AF80810002924
:100F3000F4D108E008F1010188468142FADB1AF891
:100F400008100029F6D105985B46A0EB080721465A
:100F50003846179A00F094FA284400EB080507E099
:100F60004DE029E10DE01AF8010B5A461799904718
:100F7000B8F10108F7D25B4621463846179A13E1CB
:100F800042E00A220092C4F302524FF0000A022A01
:100F900008D059F804CB032A4FEAEC710AD00DE0CF
:100FA00029E02AE009F1070121F00702F2E802C175
:100FB000914609E00FFA8CFC4FEAEC71042A03D148
:100FC0004FFA8CFC4FEAEC71002907DA0A4600213F
:100FD000DCF1000C61EB02012D2202E0220504D5B8
:100FE0002B228DF80420012203E0E20701D0202209
:100FF000F7E7904659E00A2102E010220DE01021A7
:101000004FF0000A00910BE010224FF0000A44F06C
:1010100004040827009203E008224FF0000A00921F
:10102000C4F30252022A05D059F804CB0021032A46
:1010300008D009E009F1070121F00702F2E802C136
:10104000914605E01FFA8CFC042A01D10CF0FF0C3C
:101050004FF00008220728D5702806D0009B83F0A7
:10106000100353EA0A0305D00EE040228DF8042055
:10107000012208E05CEA010206D030228DF804204B
:101080008DF8050002229046009B83F0080353EA86
:101090000A030AD15CEA010201D1620705D53022B8
:1010A0008DF804204FF001087F1E582804D034A08A
:1010B00003900EA802900DE036A0F9E75346604673
:1010C000009AFFF7BEF984460398825C0298401E9E
:1010D000029002705CEA0100F0D1029806A9081A99
:1010E00000F1200A600702D524F4803400E00127D3
:1010F000574502DDA7EB0A0000E0002000EB0A01E3
:10110000009005984144401A0590E00306D45B46E0
:101110002146179A059800F0B3F90544002706E028
:1011200001A85A46C05D179990476D1C7F1C474522
:10113000F6DBE0030CD55B462146179A059800F0D4
:101140009FF9054404E030205A46179990476D1CDA
:101150000099481E00900029F5DC08E002980299E9
:101160005A460078491C0291179990476D1CBAF1B4
:101170000001AAF1010AF1DC65E100000928010083
:1011800030313233343536373839616263646566FD
:1011900000000000303132333435363738394142BF
:1011A000434445460000000000F058F90544761C11
:1011B000307800287FF4ECAD19B02846BDE8F08FF8
:1011C000620700D4062709F1070222F0070CFCE8A9
:1011D0000223E14603F000485FEA080C02D00FF258
:1011E000702C0DE05FEA045C02D50FF2682C07E07A
:1011F0005FEAC47C02D00FF2602C01E0AFF2700C09
:101200004FF0FF3823F00043CDF850C065280CD0D4
:1012100006DC452809D046281DD047283DD13DE0B1
:10122000662818D067287ED138E00021112F01DB15
:10123000112000E0781CCDE9000106A90EA8FFF7F7
:10124000DDFCDDE90F010E9A03910021009207F108
:10125000010A04914DE04FF000400097CDE90110E4
:1012600006A90EA8FFF7CAFCDDE90F0203920E9B48
:1012700011990022DDF80CA00093049211B9791C99
:1012800000EB010AB7EB0A0004D4C0F1FF3007F10C
:10129000010A0490AAEB0700019044E0012F00DA54
:1012A00001270021112F01DD112000E03846CDE992
:1012B000000106A90EA8FFF7A1FCDDE90F010E9AB7
:1012C0000391002104910092BA4621070CD403999E
:1012D000514500DA8A46BAF1010F05DD009AAAF1FC
:1012E0000101515C302908D0B84202DA10F1040F34
:1012F00006DA0121CDE9011015E0AAF10101E9E7C3
:10130000002805DC049901440491AAEB000102E0E5
:10131000411C514500DD8A460499401A401C019049
:101320004FF000400290200704D40198504501DBA3
:10133000CDF8048000208DF84F0002980DF14F0782
:10134000B0F1004F25D02B200E9002984FF00208EC
:1013500000280CDA404202902D200E9007E00A216E
:101360000298FFF758F83031029007F8011DB8F1E4
:101370000001A8F10108F2DC02980028EFD1791EE3
:101380000E980870307800F0200040F0450007F813
:10139000020D12A8C01B00F107081498007800B1D4
:1013A000012000EB0A01019801EBE071059841442E
:1013B000401A401E0590E00306D45B462146179A6A
:1013C000059800F05DF805441498007818B15A4665
:1013D000179990476D1CE00324D55B462146179A68
:1013E000059800F04DF805441CE00498002807DB40
:1013F000DDE90301884203DD0098405C179901E0B4
:10140000179930205A469047049805F10105401C71
:1014100004900198401E019004D12E205A4617993D
:1014200090476D1CBAF10001AAF1010ADDDC05E06C
:1014300017F8010B5A46179990476D1CB8F1000137
:10144000A8F10108F4DC5B462146179A0598ABE643
:101450002D0000002B000000200000002DE9F041CD
:10146000044600251E461746880404D405E0394684
:101470002020B0476D1C641EF9D52846BDE8F081D8
:101480002DE9F041044600251E469046C80301D5CB
:10149000302700E02027880404D505E0414638467F
:1014A000B0476D1C641EF9D52846BDE8F0814A6836
:1014B000002A06D00A68531C0B6010704868401E52
:1014C000486070470A68531C0B601070704730B555
:1014D000044613E010680578206805701068401C09
:1014E00010602068401C20601888401E1880A0886A
:1014F000401EA0808D4201D1022030BDA08800286E
:1015000002DD18880028E5DC188808B90020F4E717
:101510000BE0106805781888401E18801068401C81
:1015200010608D4201D10320E7E718880028F0DC25
:101530000120E2E7016082807047000003480068F4
:10154000406908B100BFFEE770470000400100207D
:10155000F0B50B46144619461E19751E0BE04E7861
:101560000F7806EB0726B2B28618B0B2904201DAC5
:10157000461CB0B2891CA942F1D3A9420AD10E7807
:10158000002707EB0626B2B28618B0B2904201DA05
:10159000461CB0B2F0BD10B500F024FD10BD000037
:1015A0001CB50848022100234FF42072CDE9001039
:1015B00005A1084806F028F8012802D006A0FFF788
:1015C000D1FA1CBD080000206E65745F7461736BF6
:1015D00000000000397400084E65745F7461736B1D
:1015E0002063726561746564204572726F72210DAB
:1015F0000A0000000349096860F30711014A1160FD
:1016000070470000083802400349096860F38C21E4
:10161000014A116070470000083802400349096818
:1016200060F34F31014A11607047000008380240F2
:10163000012807D10749096821F030013031054AF6
:10164000116005E00349096821F03001014A116089
:1016500070470000A438024005282BD2DFE800F0D4
:10166000030A11182100154A126861F30002134B96
:101670001A6020E0114A126861F310420F4B1A60A1
:1016800019E00E4A126861F318620C4B1A6012E0FE
:101690000A4A7032126861F30002084B70331A6014
:1016A00009E0064A7432126861F30002034B743396
:1016B0001A6000E000BF00BF704700000038024021
:1016C0002DE9F04301460024A14600250026A0464E
:1016D0000022002300F026F9074627B1012F12D07F
:1016E000022F39D112E02E480068C0F3803038B1A3
:1016F0002B480068C0F3003010B12A48086001E0B0
:10170000294808602BE02848086028E024489C38D5
:101710000068C0F3805622489C380068C0F38814E3
:101720001F489C38006800F00F091D489C3800686D
:10173000C0F30240DFF874C01CF8005016B9DFF89F
:10174000688001E0DFF8608008FB04F009FB05FC1D
:10175000B0FBFCF0086002E01348086000BF00BF67
:101760000F4898380068C0F303121148835C08687A
:10177000D84048600A4898380068C0F382220D4873
:10178000835C4868D840C860054898380068C0F352
:1017900042320948835C4868D8408860BDE8F083DD
:1017A000A0380240006CDC0200127A00C479000804
:1017B000A4790008B4790008BC79000810B5014686
:1017C0000020094B03EB1142D2F8002801F01F045E
:1017D0000123A3401A4001F01F040123A3409A42B1
:1017E00000D000E0012010BD0030024030B50024E0
:1017F000002500E0641C1120FFF7E0FF012802D063
:10180000B4F5405FF6D31120FFF7D8FF012801D0CF
:10181000002500E00125284630BD000010B5012953
:101820000FD1104B03EB1042D2F8002800F01F0438
:101830000123A3401A430B4C04EB1043C3F80028C8
:101840000EE0084B03EB1042D2F8002800F01F0412
:101850000123A3409A43034C04EB1043C3F8002830
:1018600010BD00000030024030B50B4C246860F31E
:101870009654094D2C602C46246861F38E142C601C
:101880002C46246862F303042C602C46246863F31E
:1018900012442C6030BD0000043802401948006832
:1018A00020F00100401C1749086000BF154800687F
:1018B000C0F340000028F9D012480830006820F03A
:1018C000030010490831086000BF0E480830006866
:1018D000C0F381000028F8D10A490831086009489E
:1018E000006809490840074908600848091D086060
:1018F00000200449A03108604FF41F0001490C3159
:101900000860704700380240FFFFF2FE023003001B
:101910000349096860F30101014A11607047000042
:101920000838024002480068C0F381007047000098
:101930000838024010B5192000F043F9052000F0E6
:10194000D3F800F0F5F910BD10B5054909684868ED
:1019500001F0E0F801F0EAF800F0DAF910BD00005B
:101960004C01002010B500F09FFB10BD10B500F039
:10197000D9FB00F09FFB10BD08B5022269462A2062
:1019800000F029F99DF800009DF8011040EA0120BF
:1019900008BD10B5742001F052F90446752001F01D
:1019A0004EF944EA002010BD10B504460622214637
:1019B000102000F010F910BD10B5242001F03FF9FF
:1019C0000446252001F03BF944EA002010BD08B58B
:1019D00002226946002000F0FEF89DF800009DF804
:1019E000011040EA012008BD30B589B004466CB151
:1019F000204605F07DFC48B1204601F0CFFD01F006
:101A0000C5FD054600F06EF909B030BD07A8FFF727
:101A1000CBFF07A805F06CFC18B107A801F0BEFDCC
:101A200038E09DF821009DF820109DF81F209DF8BA
:101A30001E30CDE90032CDE902109DF81D309DF831
:101A40001C2015A118A0FFF78DF8002001F0A6FDBD
:101A500000BF01F09BFD016805918088ADF818007A
:101A60009DF819009DF818109DF817209DF8163064
:101A7000CDE90032CDE902109DF815309DF8142013
:101A800015A109A0FFF76EF800BF01F07FFD054624
:101A900000F028F900BFB7E7696E76616C69642EC3
:101AA0006D61632E730000002573206D61632061FA
:101AB00064647265737320253032783A2530327849
:101AC0003A253032783A253032783A253032783A31
:101AD000253032780D0A000072616E646F6D2E6DD4
:101AE00061632E650000000010B50446012100204E
:101AF00001F0D9F9204601F0EFFD10BD2DE9F041CC
:101B000004460026E0B240F040010C2001F0CBF981
:101B10000C210B2001F0C7F9012000F066F908E064
:101B2000012000F062F9701C0646B0F5FA7F00DB78
:101B300006E00B2001F083F800F001000028EFD14F
:101B400000BF00210B2001F0AEF90D2001F077F865
:101B500007460E2001F073F847EA00252846BDE845
:101B6000F08170B505460C460026E8B240F0400111
:101B70000C2001F098F9E1B20D2001F094F9210A4E
:101B80000E2001F090F90A210B2001F08CF90120C0
:101B900000F02BF908E0012000F027F9701C064640
:101BA000B0F5FA7F00DB06E00B2001F048F800F00A
:101BB00001000028EFD100BF00210B2001F073F9D4
:101BC00070BD10B5044600211F2001F06CF92046BD
:101BD00000F0FFF810BD2DE9F04105460E4617460E
:101BE000002407E0284601F02AF83055601C84B232
:101BF000681CC5B2BC42F5DBBDE8F08110B57020B1
:101C000001F01DF8702001F01AF810BD08B504218C
:101C1000684600F0F9FF80217E2001F044F9684613
:101C200002F07EFB08BD70B505460C464CB121465E
:101C3000284600F0E9FF80217E2001F034F920469B
:101C400070BD0020FCE7000010B5FFF7D7FF044689
:101C50000F480068406850B100BF04F0030001283D
:101C600004D01CB1204600F03DFD10BD08E000BFCF
:101C7000012C04D01CB1204600F034FDF5E700BF74
:101C800000BF14B900F080FDEFE700BF0120ECE7D2
:101C90004001002010B507480068C06840B13921F4
:101CA0000A2001F000F940F2E1510420FFF759FF4A
:101CB00010BD00004001002010B500F0FBF910BD80
:101CC00010B500240BE0072C01D1802200E0002297
:101CD000114604F11602D0B201F0E5F8641C082C9C
:101CE000F1DB10BD10B5044606222146102000F09D
:101CF0005DF810BD70B50446312514B145F00A00F9
:101D000000E028460146052001F0CDF870BD000036
:101D100010B5FFF7D5FFFFF7BDFFFFF7CDFF034974
:101D200009680869FFF7E6FF10BD000040010020C8
:101D300010B580215E2001F0B6F80F213D2001F0A2
:101D4000B2F88121572001F0AEF80121392001F0CD
:101D5000AAF808480068006818B10721312001F08E
:101D6000A2F804480068406818B10321322001F04D
:101D70009AF810BD4001002010B50446E1B27C2065
:101D800001F091F8210A7D2001F08DF8204610BD68
:101D900010B504462046FFF7EFFF10BD70B50446AE
:101DA0000D462946204601F063F870BD2DE9F0414B
:101DB00005460E461746002407E0315D284601F02F
:101DC00072F8601C84B2681CC5B2BC42F5DBBDE889
:101DD000F08100B5024600F029F9034600BF00F08B
:101DE00025F9C01A9042FAD300BD10B5024600F0A2
:101DF0001DF9034600BF00F019F9C11A02F2E730DD
:101E00004FF47A74B0FBF4F08142F4D310BD0000BB
:101E100070B586B004460D4616461C480068022878
:101E200002DA304606B070BD19480088844228DACC
:101E300017480088B0F5804F23D0164800888442A8
:101E400002DB4FF4505000E00020284485B21248D5
:101E50000368E8B22912E2B2CDE90403CDE9022118
:101E600020120C490978CDE900100A4800880312B5
:101E7000324603210948FEF775FE761C002006490C
:101E80000860034804803046CCE700007C01002055
:101E90009E0100208C01002080010020E0920008BB
:101EA000014691F82000062821D11248007800F060
:101EB0000100E0B1088A104A1268528A90420CDD93
:101EC000088A0D4A1268528A801A08820A4A4868AB
:101ED0001268528A1044486005E00A8A4868104433
:101EE000486000200882012081F82000704700200F
:101EF000FCE70000140100201801002070470000DA
:101F000010B50A480068401C084908600848006885
:101F1000032803DB07480068082805DA044800683E
:101F200000F00AF80249086010BD0000800100209E
:101F3000840100208801002038B504466846FEF779
:101F40006AFDBDF80020094801880120FEF76AFDFE
:101F500005462946BDF8000001F08AFC22462946C4
:101F6000BDF80000FFF754FF38BD00008C010020D1
:101F700010B50548FEF74FFD034802884FF4406155
:101F80000020FEF74FFD10BD8C01002010B5034866
:101F9000006808B9FFF7ECFF10BD000080010020C9
:101FA00070B5044600F080FD05460A48006880B11F
:101FB0007CB108480068401E064908600DB906A0BB
:101FC00000E006A001462346024802680448FEF7E6
:101FD000C9FD70BD50000020504F4C00494E5400C8
:101FE000308E00080A480068401C0949086008460D
:101FF00000680849884207D3002005490860064860
:102000000068401C044908600348006870470000ED
:102010001400002040420F000C000020024800681D
:10202000401C0149086070470C0000200A48006805
:10203000401C094908600846006842F21071884255
:1020400007D300200449086004480068401C034985
:1020500008600248006870476001002058010020B5
:1020600010B5002000F008FE012000F005FE00F091
:102070000BFE00F07BFD06490968486000F016FD84
:1020800000F0F2FC00F08AFE00F00EFD10BD000032
:102090004C01002010B5044621460248FEF793F992
:1020A00010BD00008E01002010B580217F2000F0BF
:1020B000FAFE10BD10B500F0F7FC08B9802000E072
:1020C0008120044621467F2000F0EDFE10BD000077
:1020D00010B50446022000F0CFFD00F037FA30B909
:1020E000FFF72CFA04A0FEF73DFD002010BD2046AE
:1020F00001F07EFAFAE700000D0A000010B506496B
:102100000968486801F060F918B1FFF72BFC01205D
:1021100010BD0020FCE700004C01002010B5FFF7C7
:1021200025FC10BD10B57E2000F089FD0446214637
:102130007E2000F0B8FE44F47F4010BD70B5044628
:102140000120FFF7DBFC0546FFF716FC45EA0045DA
:10215000FFF73DFC06462670300A6070280EA0701E
:10216000280CE070280A2071657170BD70B50446B6
:102170000D46FFF721FC2080FFF70BFC288070BD87
:1021800070B50446FFF760FD38B1FFF73FFD054627
:1021900029462046FFF747FD70BD0020FCE7000000
:1021A00070B505460E4620A0FEF7DCFC002434E0A6
:1021B000E11704EBD1614911A4EB411119B914B134
:1021C00021A0FEF7CFFCE21704EBD2625211A4EB80
:1021D000421232B1E21704EB12721211A4EB021296
:1021E0001AB9214619A0FEF7BDFCE11704EB5171A5
:1021F000C910A4EBC10111B916A0FEF7B3FC0CB1D4
:10220000012C03D114A0FEF7ADFC05E0A01E295C53
:1022100012A0FEF7A7FC00BF641CB01C8442C7DB01
:1022200009A0FEF79FFC70BD534857207278625397
:1022300074617469737469632C2032353420777249
:102240006E67730D0A0000000D0A00002530327819
:102250003A0000002000000020200000256420003B
:1022600070B505460C462046FFF792FD044644B182
:1022700021462846FFF792FD4FF4FA71012003F042
:1022800029F970BD10B504460B4948680121FFF7D4
:10229000C5FA0949002301220868214604F034FEEA
:1022A00005490868012104F08FFE034908680121EF
:1022B00004F01CFE10BD0000800000201CB50121B0
:1022C0004FF44010FFF7AAFA684600F061FB0120C6
:1022D0008DF8070000208DF8040002208DF806001C
:1022E0000002009000208DF805006946044800F0C7
:1022F00059FB07220921024800F091FB1CBD000098
:102300000000024010B504461CB121460248FEF709
:102310005AF8014810BD00008E0100202DE9F0415F
:1023200006460C460CB9BDE8F0812A480068022830
:1023300000DBF8E700BF304601F0E0FA074626A1CF
:102340003846FEF732F820B9394624A0FEF70AFCD9
:1023500015E025A13846FEF728F820B124A138461B
:10236000FEF723F820B939461CA0FEF7FBFB06E078
:1023700023460222174801681FA0FEF7F3FB01F075
:1023800009F90546287808B9012000E0002069789D
:1023900009B9012100E000210840A97809B901210B
:1023A00000E000210840E97809B9012100E000219E
:1023B000084000B1B7E72E23224631461AA001F0AB
:1023C00015F804480068401C0249086000BF00BFBF
:1023D000A9E700007C0100204172700072656376FD
:1023E0002025730D0A00000044686370000000009F
:1023F00049636D7000000000726563762028647583
:102400006D7052506B74202564202F20616C6C6FAE
:10241000774D6178202564292072786C656E2025BF
:1024200034640D0A0000000028646D39206865617D
:10243000642020203C3C727829000000034800689A
:1024400010B1002001490860704700007C010020A5
:102450007CB505466846FEF704FB6846FEF7F2FACF
:1024600008B1012000E0002004461448006880B153
:102470003CB101F0E3FA01F07FFA35B902F086FCD5
:1024800003E001F0D5FA01F077FA00200B4908606B
:102490007CBD01F0C7FA30B92CB101F0CFFA01F0E0
:1024A0006BFA0120F4E701F0BDFA20B11CB901F08C
:1024B000BFFA01F061FA0020EAE70000AC01002059
:1024C0002DE9F043C5B005460E4600BF05AC00F04F
:1024D00047FB074600F03AFB804600F0C1FA814610
:1024E0000CA04B460EA24FF48071CDE90186CDE9D8
:1024F0000370009505A8FEF745FB04E014F8010BF6
:10250000114901F003FE20780028F7D100BF45B043
:10251000BDE8F0834E6F7620313120323032350005
:102520000D0A0D0A0D0A5B2573206D6F64655D2031
:102530002F2573205B25735D202573202F257320A5
:1025400025730D0A000000007C0000202DE9FC47E7
:1025500003260025FFF76AFD07465C2000F06FFBAD
:102560008146FFF709FA0446B4F5104F01D149F24C
:10257000510400F075FA804649F25100844202D0BD
:10258000C01D844201D124A000E027A002462346BA
:1025900041462AA0FEF7E6FA49F25100844201D1F1
:1025A0001DA000E020A0014622462BA0FEF7DAFA8B
:1025B00020E02C4D01E0FFF739FD281EA5F10105B3
:1025C000F9D1FFF733FDC51B012D13D84FF47A70F5
:1025D00042F21071CDE9001001D123A000E026A045
:1025E00003460DB125A000E029A001462A462D484A
:1025F000FEF7B8FA15B9701E061EDADA49F2510074
:10260000844202D0C01D844203D115B10120BDE82F
:10261000FC870020FBE70000444D3930353120664F
:102620006F756E6400000000444D39303531206E06
:102630006F7420666F756E64000000005B44524941
:10264000564552202573206D6F64655D2025733AD1
:1026500020253034780D0A0025733A20253034784F
:102660000D0A000040420F002C20696E6372656104
:102670007365207479706500202100005B48454136
:10268000525442454154205741524E5D00000000D3
:102690005B484541525442454154204552524F52A5
:1026A0005D000000449200080FB410B5AEB031A830
:1026B0000090009810C80090224601A83099FEF7BB
:1026C00079FA01A906A0FEF74DFA00200090FFF765
:1026D00031F9FFF739F900202EB010BC5DF814FB7A
:1026E0002573000070B505460126002417E0A01CE4
:1026F000854213D10D48005D401C0C4908552B46FE
:102700002246FE21094801F0CFFD06460EB9002001
:1027100070BD314606A0FFF7C7FFF9E7641CFE2C29
:10272000E5D331460EA0FFF7BFFFF1E738B3002035
:102730005F646D393035316620727862206572725F
:102740006F7220616363756D756E6174696F6E2061
:1027500074696D6573203A2025750D0A000000002C
:10276000646D3920696D706F737369626C65207078
:10277000617468206572726F722074696D65732070
:102780003A2025750D0A00001CB5694601A8FFF71F
:10279000EDFCBDF80010BDF8040001F003FE08B127
:1027A00000201CBD0020FCE7002141724160012196
:1027B0000172017070470000014908607047000015
:1027C000143C0140014600200022044B1B6803EA30
:1027D00001020AB1012000E000207047143C0140D2
:1027E000014600204868234A12688243214B1A6040
:1027F0001A1D126882431B1D1A604A7A0AB30A78AE
:102800002AB91A1F126802431B1F1A6006E0194AF0
:10281000121D12680243174B1B1D1A60154A08321D
:1028200012688243134B08331A601A1D12688243E0
:102830001B1D1A600A7A2AB91A1F126802431B1F4D
:102840001A6016E00A7A012A07D10A4A0C32126885
:102850000243084B0C331A600BE0064A0832126838
:102860000243044B08331A601A1D126802431B1DF1
:102870001A607047003C014070B504460D4600BF29
:102880008021054804F037FB0028F9D0A1B20248A6
:1028900004F028FB204670BD0010014070B50546CD
:1028A0002C469C2000590D490968498A884205DD5B
:1028B0000A480068408AC4F8A00003E09C20005940
:1028C000C4F8A00098340648A26821680068FDF7A3
:1028D0002BFD2089983C80B270BD000018010020BB
:1028E0000801002010B592B0044621484088000A33
:1028F0001F4989781E4A1288120A1D4B1B78CDE9A0
:102900000D32CDE90F101B484088000A194989781B
:10291000184A1288120A174B1B78CDE90932CDE903
:102920000B1015484088000A13498A780988090A5B
:10293000114B1B78CDE90531CDE907200F484279CD
:102940000179C0780D4B9B78CDE90130CDE90312B8
:102950000A484078009009480378094A40F20A6121
:1029600008480068FEF70EF980B212B010BD0000F2
:102970000001002004010020FC000020E87900088C
:102980002090000808010020816270478161704733
:102990004FF6FF71016000218171017141710121C8
:1029A000C171704770B50A4600211488A3B233E0A4
:1029B00003F001046CB304684E000325B540AC433A
:1029C000046094794D00AC4005682C430460446871
:1029D00001258D40AC434460446815798D402C43FB
:1029E000446084684E000325B540AC438460D479CC
:1029F0004D00AC4085682C438460C4684E000325BC
:102A0000B540AC43C46054794D00AC40C5682C431C
:102A1000C4605B104C1CA1B2002BC9DC70BDF0B5CA
:102A2000002300244D07ED0E02FA05F3CD105DB131
:102A3000456A4E07F70E0F26BE40B5434562456A0C
:102A400045EA030444620AE0056A4E07F70E0F26C2
:102A5000BE40B5430562056A45EA03040462F0BD61
:102A600000A07047494E540010B5FFF7F9FF044627
:102A7000214602A0FEF776F810BD00005B636F727E
:102A8000655D20646D393035315F636F6E737461DD
:102A9000616E747320272573272052756E6E696EE0
:102AA000672E2E2E0D0A0000012070471FB5002052
:102AB00000900190029003906846FEF701FE0749DE
:102AC0000298B0FBF1F10648827802209040B1FBF9
:102AD000F0F4214603A0FEF745F81FBD40420F0069
:102AE0006C0100205B68616C5D2061743332663478
:102AF00033375F73706931202773706927205275EF
:102B00006E6E696E672025644D687A2E2E2E0D0A32
:102B10000000000000B5014600F070F8884202D1C4
:102B20000020014A106000BDA801002010B5064930
:102B3000487800F089FE044991F900000022012143
:102B400000F01EFE10BD00001C8E000800A07047A3
:102B5000646D393035315F75323531300000000039
:102B600000A07047725F395F3100000000B585B08A
:102B700001211D48FEF752FE01211C48FEF74EFEC2
:102B800003A8FFF705FF00208DF8100001208DF845
:102B9000130000208DF8120001208DF81100144858
:102BA000808803901249086803A9FFF7FBFE114AC9
:102BB0005178107801F0FEFB6846FFF7F5FD012023
:102BC0008DF8090000208DF800000B484068019046
:102BD0000948007A8DF808006846FFF701FE0648AC
:102BE000406805B000BD0000020030000E00440047
:102BF000288E0008188E00081C8E000801484068C6
:102C0000704700001C8E00082DE9F04705460E466F
:102C100000F024F97227A846B146384600F0F8F8CB
:102C2000002405E000F0A0F808F80400601C84B25D
:102C30004C45F7DB00BF00F007F9BDE8F08738B579
:102C4000044600F00BF96D46204600F0E1F800F074
:102C50008BF8287000BF00F0F7F89DF8000038BD31
:102C600000B50146FFF7CAFF884202D10120014AA0
:102C7000106000BDA80100200146024850F8210064
:102C800070470000640100201CB501213048FEF7A8
:102C9000C5FD304801F082FF00202E490870012058
:102CA00048708870022088700020C87008714871D0
:102CB0008871294801F090FF0121274801F079FF30
:102CC00001214FF44010FEF7A9FD6846FFF760FEB2
:102CD00000208DF8040001208DF807008DF8060013
:102CE00000208DF805004FF40040009069461B4815
:102CF000FFF758FE6846FFF74BFE00208DF80400F2
:102D000001208DF8070002208DF8060000208DF8C4
:102D10000500134880880090114908686946FFF74C
:102D200041FE104B5A7819780D4B1868FFF777FE63
:102D30000C4BDA7899780A4B1868FFF770FE094B4C
:102D40005A791979064B1868FFF769FE1CBD000017
:102D50000C0044006C0100200030014000000240E3
:102D6000088E0008108E000810B500BF02210A4826
:102D700001F02AFF0028F9D00021074801F022FFC6
:102D800000BF0121044801F01FFF0028F9D00248CC
:102D900001F014FFC0B210BD003001407FB500202B
:102DA00000900190029003906846FEF789FC0A4962
:102DB0000298B0FBF1F10948827802209040B1FB03
:102DC000F0F405490298B0FBF1F523462A4604A128
:102DD00006A0FDF7C7FE7FBD40420F006C0100203A
:102DE000617062325F667265710000002028257391
:102DF000292025644D687A2C20736574205350492E
:102E000020434C4B2025644D687A0D0A00000000D9
:102E100010B5044600BF02210A4801F0D5FE002883
:102E2000F9D02146074801F0CDFE00BF0121054839
:102E300001F0CAFE0028F9D0024801F0BFFEC0B27E
:102E400010BD00000030014010B54FF400410248B1
:102E5000FFF79CFD10BD00000000024010B54FF4CC
:102E600000410248FFF790FD10BD00000000024045
:102E70002DE9F04705460E46FFF7F0FFF827A84674
:102E8000B1463846FFF7C4FF002405E018F80400F7
:102E9000FFF7BEFF601C84B24C45F7DB00BFFFF7B5
:102EA000D3FFBDE8F08770B505460C46FFF7D6FFA7
:102EB00045F080063046FFF7ABFF2046FFF7A8FF3E
:102EC00000BFFFF7C1FF70BD10B50446204600F0FB
:102ED00009F894F89600012802D1204600F0C4F8C1
:102EE00010BD000038B5044601200090A08840B114
:102EF000B0F5B97F0AD0A0F2791020B332286FD193
:102F000074E000BF4FF4B970A08000BF2021201DE5
:102F100001F07AF808B9002038BD00BF0422424908
:102F200004F15000FDF758FA40B100BF10203F49AE
:102F3000087000BF0020A0800120EDE700BF40F234
:102F40007910A08000BF2021201D01F05DF808B994
:102F50000020E1E700BF94F850002F2808D000BF00
:102F600010203249087000BF0020A0800120D3E764
:102F70005120005D202803D05120005D3F281ED144
:102F80000E222BA104F18200FDF7F2F907222CA1F9
:102F900004F15100FDF720FAF0B95920005D312805
:102FA00006D129A0FDF781FD01202A49086013E020
:102FB00000202849086028A0FDF777FD0CE0201DBF
:102FC00000F0A6FF401E04F1500100220A54142212
:102FD00004F18200FDF7CCF9012084F896001CE092
:102FE0001CE000BF40F2AB10A08000BF0A21201DF2
:102FF00001F00AF808B900208EE700BF082219493D
:1030000004F15000FDF7E8F938B9201D00F080FF09
:10301000801E04F1500100220A54E2E700200090D3
:10302000A080022078E70000AB8B0008140100208C
:103030002F6C6564746573742E68746D6C00000089
:103040003F737769746368004C4544204F4E200DF0
:103050000A000000040000204C4544204F46462052
:103060000D0A0000158C000838B5044601200090B8
:10307000B4F84C0040F25312811A904258D008DC48
:1030800070B1A0F24510C0B1032824D00B287CD128
:1030900040E0052959D00D2975D01129F7D181E0DB
:1030A0000D2249A104F18200FDF796F9D8B900BFBD
:1030B00040F24510A4F84C0000BF4749204601F0FB
:1030C0002BFA08B9002038BD00BF00BF4FF4A47030
:1030D000A4F84C0000BF204601F024FB08B90020F2
:1030E000F1E700BF66E004F1980104F1820000F00E
:1030F00015FA20BB04F19801384800F00FFA37495F
:1031000004F18200FDF75FF900BF4FF4A870A4F846
:103110004C0000BF3249204601F0FEF908B90020FA
:10312000D1E700BF00BF40F25310A4F84C0000BF2D
:10313000204601F0C1F908B90020C4E739E000BF1A
:103140004FF4AC70A4F84C0000BF2349204601F0B6
:10315000E3F908B90020B6E700BF2E2104F1820090
:10316000FDF712F90546BDB106221E492846FDF7B6
:1031700033F988B90020A4F84E0000BF4FF4B070B6
:10318000A4F84C0000BF204600E016E000F05EF816
:1031900008B9002097E70CE000BF4FF4B270A4F824
:1031A0004C0000BF204601F087F908B900208AE7EB
:1031B00000BF00BF10200C49087000200090A4F848
:1031C0004C0002207FE700002F6C65647465737407
:1031D0002E68746D6C0000001E8C00080B8C0008BB
:1031E000728C0008C38D00081401002010B54FF444
:1031F000006000F01DF91349898988420ED1012031
:1032000002F0BAFC1048008800281ADD02F092FA99
:103210000D4801880B48FFF723F812E040F606003E
:1032200000F006F90749898988420AD102F0F2F9CB
:1032300005480088002804DD034801880148FFF79D
:103240000FF810BD9CA5002010010020F8B5044621
:1032500001200090B4F84E0040B1D6282DD0DA28D5
:1032600037D0A0F2071000287ED18CE09FE0D4F880
:1032700098000078252845D1D4F898004078212876
:1032800040D1D4F89800C01CC4F8A4009C20005978
:10329000C01EC4F8A800D4F8A40010F8010C3A2805
:1032A00012D1D4F8A410481C04F1980100F036F9AA
:1032B00000BFD620A4F84E0000BF204601F0FCF865
:1032C00008B90020F8BD12E000BFDA20A4F84E00D3
:1032D00000BFD4F8A40000F003F90746D4F8A460B6
:1032E00031462046B84708B90020EBE700BF20462A
:1032F00000F028FA9834E06820602169983C9C200E
:10330000015154E09C2000592E490968498A88429D
:1033100005DD2C480068408AC4F8A00003E09C202A
:103320000059C4F8A000D4F898000078252807D1E7
:10333000D4F89810481C2521FDF726F8054605E02D
:103340002521D4F89800FDF71FF80546ADB1D4F853
:103350009800A84211D054F8980F281AA060A068CD
:10336000983C1849096800E026E0498A884204DB55
:1033700014480068408AC4F8A00000BF40F207105B
:10338000A4F84E0000BF204601F0EAFB08B9002077
:1033900098E700BF54F8980FA168084444F89809CA
:1033A0009C200059D4F8A010411A9C2001519C2067
:1033B000005900283FF75BAF00200090A4F84E00B2
:1033C00002207FE71801002000B50146FFF716FC38
:1033D000884207D10448006820B10020024A1060EA
:1033E000012000BD0020FCE7A80100202DE9F041EC
:1033F00086B006460F4614461D460021284601F0B9
:1034000097FC80460120AC4201D8214600E02946C5
:103410000022CDE90172CDE9031020202346324677
:1034200000210090404601F0ABFC06B0BDE8F08101
:103430000146080240EA212080B2704710B52648B4
:10344000006800F11C042548007800F010000028F6
:1034500040D12248007800F0200000283AD11F48CF
:10346000007800F08000002834D11C48007800F07B
:103470004000B0B1312204F15001201D00F092FD56
:10348000312204F1500104F1280000F08BFD0020EE
:10349000A4F84C0084F8960020702046FFF714FD35
:1034A00018E0A4B10D48007800F0080048B1207879
:1034B000401C20702078142805DB20200749087064
:1034C00001E0002020702046FFF7FEFC02E02020F3
:1034D0000249087010BD00001801002014010020EE
:1034E00070B505460B4C0FE021680868FCF756FFE5
:1034F00006462168324608682946FCF76DFF10B978
:103500002068406870BD241D20680028ECD1024866
:10351000F8E70000380100206737000870B506465C
:103520000D46094C0BE03046616800F00FF828B9F1
:10353000A0682860E0686860012070BD2468002CE5
:10354000F1D10020F9E700007C8B000810B502469D
:103550000B46002100BF585C28B1505C0D2802D0FA
:10356000505C0A2801D1002010BD505C5C5CA04278
:1035700001D00120F8E7481CC1B2ECE710B54FF4C8
:10358000A04002F0C5FA10BD704770470048704770
:103590005001002000487047FC00002010B5044690
:1035A0002CB10E4821680160A188818014E00020C0
:1035B0000A490870602048706E208870FCF7A2FEEF
:1035C0000649C870FCF79EFE401C04490871FCF7D0
:1035D00099FE801C01494871004810BD500100202F
:1035E00002480068401C0149086070472C00002018
:1035F00010B504460120064909680860FEF79AF9EB
:103600002046FEF7F1F9FEF79FF9FFF7BFFF10BD67
:103610004C01002010B50948FEF7B2FD08490880AA
:10362000084601880548FEF779FE0548008800280D
:1036300001DD012010BD0020FCE700009CA500205A
:1036400010010020014608884A8810438A881043E8
:1036500008B9012070470020FCE7000010B512A057
:10366000FEF718FD032000F0EFF801F0C5FC4FF461
:10367000E13001F069FF0EA0FDF774FA0020FEF7BB
:1036800041FE044621460BA0FDF76CFA0CA10FA0E9
:10369000FEF716FF03F0E8FCFDF782FF03F00EFDD6
:1036A00003F090FD002010BD6634333700000000A9
:1036B0000D0A00005B6174333225735D0D0A000052
:1036C0007765625F73657276657200005549505F79
:1036D00070726F6A6563740010B504460EE0641E74
:1036E0000120FEF776FB0020FFF7A9FA00F00100A9
:1036F00000B910BD14B903A0FDF734FA002CEED1C7
:1037000000BFF6E76E63725F636F6D706C5F746924
:103710006D656F75742875696E7433325F742074CB
:10372000696D656F75745F6D7329202D2D20436859
:1037300065636B20636F6E646974696F6E210D0A37
:103740000000000070B5044654F8A40F0A21FCF7ED
:103750001BFE451C2188691A89B26068401A6060A6
:1037600044F8A45970BD08B5024601200090108DA0
:1037700000B900BF00BF002000901085022008BDE6
:103780002DE9F0470B4614464FF0000C00BF2C4AC1
:103790001268C2F302211D4626460A46C2F10709F5
:1037A000B9F1040F02D94FF0040901E0C2F1070991
:1037B000C84602F10409B9F1070F02D24FF000091F
:1037C00001E0A2F103094F464FF0010909FA08F997
:1037D000A9F1010909EA050909FA07F94FF0010AF7
:1037E0000AFA07FAAAF1010A0AEA060A49EA0A09E4
:1037F000CC4601466246002904DB15072E0E114D0A
:103800006E5407E015072F0E0D4D0C3501F00F0615
:10381000361FAF5500BF014600290DDB00BF00BFBA
:1038200001F01F050122AA404D09AD0005F1E02578
:10383000C5F8002100BF00BF00BFBDE8F087000051
:103840000CED00E000E400E000BF00F00702064BD2
:1038500019684FF6FF031940044B0B4343EA02215A
:10386000014B196000BF70470CED00E00000FA0545
:1038700070B588B004460D461A480068022801DA7F
:1038800008B070BD18480068082826DA2146174895
:10389000008803F0E1FD064615480368F0B23112D6
:1038A000EAB2CDE90603CDE904212812E1B22212E1
:1038B000104B1B78CDE90032CDE902100D4800888D
:1038C00003120948082102680B48FDF74BF9064826
:1038D0000068401C0449086000BF0448048000BF21
:1038E000CEE700007C010020880100209C01002020
:1038F000800100208C010020249300080146087BF1
:10390000082804D1487B062801D112A07047C87D41
:10391000112808D191F8220028B991F823004328F2
:1039200001D10DA0F2E7C87D112808D191F822003D
:1039300028B991F82300442801D107A0E6E7C87D03
:10394000012805D191F82200082801D104A0DDE763
:1039500005A0DBE74172700044686370000000005E
:1039600049636D7000000000556E6B6E6F776E5F7F
:103970004F7468657273000010B51448006870B128
:1039800000F050F838B112A000F074F8FFF7FCFD19
:1039900001F0FCF902E012A000F056F810BD00F0B2
:1039A00041F828B113A000F065F8FFF7EDFD0AE03B
:1039B00014A000F049F81948FDF7D4F8FFF7E5FD29
:1039C0001748FDF7CFF800BFE8E70000AC01002082
:1039D000696E697420746F206C696E6B207570005D
:1039E000696E697420746F206C696E6B20646F77E8
:1039F0006E000000646F776E20746F206C696E6BD0
:103A000020757000757032646F776E20746F206C53
:103A1000696E6B20646F776E00000000EC93000805
:103A20009C9300080148006870470000B001002026
:103A30000020014908607047B001002001200149C1
:103A400008607047B001002070B50446FFF708F821
:103A500005462246294602A0FDF784F870BD000005
:103A60005B2573206D6F64655D20282573290D0A21
:103A700000000000FEB50546FFF78CFD0446FEF78A
:103A8000EFFF0646E078A1786278CDE90021029048
:103A900023782A46314602A0FDF764F8FEBD0000F7
:103AA0005B2573206D6F64655D20282573292025B3
:103AB000642E25642E25642E25640D0A0000000066
:103AC0002DE9F04105460E461C4807681C48006871
:103AD000001D03F07EFA50B91948006890F82C10C8
:103AE0000120884017490968814316480160681C15
:103AF00038B936B112480168091D134803F0A7FA16
:103B00001AE07C190E4800684460BC4207D20C4899
:103B10000168091D0D48006803F07FFA0CE00848B1
:103B20000168091D0A48006803F077FA094800682F
:103B3000844201D207480460BDE8F081AC00002057
:103B400098000020B000002088050020A000002080
:103B50009C000020C800002010B5044603F084FA41
:103B600024480068401C234908602348006840B985
:103B7000214804600846006801280DD100F028F9AA
:103B80000AE01E48006838B91B480068C06AE16A4C
:103B9000884201D81848046019480068401C184938
:103BA000086008460068606494F82C100120884082
:103BB00014490968084313490860E16A01EB81016F
:103BC000114A02EB8100211D03F041FA03F076FA5D
:103BD0000A48006868B108480068C06AE16A88421B
:103BE00007D24FF0805009490860BFF34F8FBFF3F1
:103BF0006F8F10BDA800002098000020B4000020A6
:103C0000C4000020B0000020B802002004ED00E055
:103C100010B516E003F028FA0C48C068C468201DEF
:103C200003F0D7F90A480068401E094908600948AE
:103C30000068401E0749086003F040FA204600F083
:103C40000BF8044800680028E4D110BD740500207A
:103C5000A8000020A400002010B50446206B03F04B
:103C60004BFA204603F048FA10BD000030B54FF47F
:103C70002043174800F007042CB1C01D20F00700B6
:103C8000134C041B1B1B0246124C22600024114DD6
:103C90006C60D018083820F007000F4C206000241A
:103CA0000D4D2D686C600C4D2D682C601146441A2A
:103CB0004C60094C24680C60084D4C682C60084D21
:103CC0004C682C604FF00044064D2C6030BD000065
:103CD0009C050020DC000020E4000020EC00002017
:103CE000E8000020F800002000BFFFF791FF064821
:103CF00000680128F9D94FF0805004490860BFF3EB
:103D00004F8FBFF36F8FF0E7B802002004ED00E0A3
:103D10002DE9F05F82460E4690469B460A9F0C9C1A
:103D20004FEA8801A522206BFCF710FBA8F10100E7
:103D3000216B01EB800929F0070909F0070008B998
:103D4000012000E0002050B900BF102080F311884E
:103D5000BFF34F8FBFF36F8F00BF00BFFEE786B189
:103D6000002507E0715D04F134004155705D00B934
:103D700002E06D1C102DF5D300BF0021432001553A
:103D800002E0002084F83400202F00D31F27E762D0
:103D9000E76400202065201D03F03CF904F11800C1
:103DA00003F038F92461C7F12000A06164620020AB
:103DB000606584F858005A465146484600F05EFA5D
:103DC00020600B9808B10B980460BDE8F09F0000DC
:103DD00010B5002407E004EB84010F4A02EB8100D8
:103DE00003F00BF9641C202CF5D30C4803F005F903
:103DF0000B4803F002F90B4803F0FFF80A4803F000
:103E0000FCF80A4803F0F9F8044809490860044836
:103E10000849086010BD0000B802002038050020E5
:103E20004C05002060050020740500208805002056
:103E30009C000020A000002010B50146164800E0BC
:103E4000006803688B42FBD30246436813448B42ED
:103E500004D143684C682344436001460A464B68DA
:103E600013440468A34211D10C4C03682468A34294
:103E700008D04B680468646823444B6003681B687F
:103E80000B6005E0054B1B680B6001E003680B60ED
:103E9000884200D0016010BDDC000020E40000205A
:103EA00009480068006808B9012000E0002020B13E
:103EB0004FF0FF300549086005E003480068C0681E
:103EC00000680249086070479C000020C80000207C
:103ED0000E480068401C08B9012000E0002050B9DD
:103EE00000BF102080F31188BFF34F8FBFF36F8F97
:103EF00000BF00BFFEE700BF102080F31188BFF3B2
:103F00004F8FBFF36F8F00BF00BFFEE71C00002084
:103F100001468A8B088B101A80B27047F8B50446A8
:103F20000D46164601200090608818B1B0F5847FD8
:103F30002ED11BE025B900BF002060800120F8BD14
:103F40003046A8472082154800686060002084F849
:103F5000200000BF1248007800F0040008B130468D
:103F6000A84700BF4FF48470608000BF2046FDF773
:103F700097FF0746204600F077FA07400FB9002068
:103F8000DDE700BF208A0028E4DC002084F8200060
:103F90000020009060800220D1E70000080100208E
:103FA000140100202DE9F04104460D4616462F4627
:103FB000002084F820006082E760E661B2B23946F2
:103FC00004F11400FDF7B6FA002020806080BDE8FF
:103FD000F08100000146488A002801DD0120704779
:103FE00091F82000022804D1032081F8200000204D
:103FF000F5E70448007800F0020008B10120EEE780
:104000000020ECE71401002038B504460D460120DD
:104010000090608818B1B0F59E7F35D10EE0A08B7E
:1040200082B204F11400E168FDF784FA00BF608AEF
:10403000A0B900BF4FF49E70608000BF2046FFF71C
:10404000C9FF08B9002038BD00BF022084F8200055
:1040500010480068A06010480088608204F11203D4
:1040600004F108022946981CFDF731FA00F002001D
:104070000028DCD02046FFF74BFF28B9002084F849
:10408000200000BF6080DEE70020009060800220FA
:10409000D9E7000008010020100100202DE9F843B5
:1040A00004460E461546374601200090608810B140
:1040B000E42826D110E02DB900BF00206080012047
:1040C000BDE8F88367602582002084F8200012E0B4
:1040D00000BFE420608000BF2046FDF7E1FE80467F
:1040E000204600F0C1F908EA0008B8F1000F01D13C
:1040F0000020E5E700BF208A0028E9DC002084F8E2
:1041000020000020009060800220D9E7FEF7B4BBB9
:104110002DE9F04104464FF0000803F09BF85148A8
:10412000006808B9FFF7A2FD4F480068204000284A
:104130007ED13CB304F10800A04223D9083404F036
:10414000070000B304F00700C0F108002044A042BB
:1041500016D904F00700C0F10800044404F0070079
:1041600008B9012000E0002068B900BF102080F3EA
:104170001188BFF34F8FBFF36F8F00BF00BFFEE703
:10418000002400E00024002C54D038480068844209
:1041900050D8374E3046056801E02E462D686868D5
:1041A000A04202D228680028F7D12E480068854234
:1041B00040D0306800F10808286830606868001B4B
:1041C000102819D92F1907F0070008B9012000E0BD
:1041D000002050B900BF102080F31188BFF34F8F2B
:1041E000BFF36F8F00BF00BFFEE76868001B7860F9
:1041F0006C603846FFF720FE1C4968680968081A99
:104200001A490860084600681A490968884203D2BA
:104210001648006817490860134968680968084328
:1042200068600020286014480068401C124900E0C3
:1042300000E0086003F028FB08F0070008B901203F
:1042400000E0002050B900BF102080F31188BFF3B8
:104250004F8FBFF36F8F00BF00BFFEE74046BDE842
:10426000F0810000E4000020F8000020E8000020B9
:10427000DC000020EC000020F0000020001F4FF0C8
:1042800080730360001F21F001030360001F054BD2
:10429000036014380260001F6FF0020303602038CF
:1042A00070470000D13E00082DE9F04104460F465A
:1042B00015461E46605D022801D12A2000E020201C
:1042C0000346625D314608A0FCF74CFC605D0A289D
:1042D00008DB39462046FDF763FF012060550A20C0
:1042E000BDE8F0810020FBE7205F646D3930353197
:1042F00066207278622025303278202874696D65D6
:1043000073202532642925630D0A0000024600202F
:1043100002E020231354401C8842FADB704700005F
:1043200070B504466678A078E17800EB012085B28C
:1043300000BF06F0B70020B1314609A0FEF7B4F97E
:1043400070BD00BF00BF40F2EE50854204DD29463B
:104350000CA0FEF7A9F9F3E700BF2846F0E700003C
:104360005F646D39303531662072785F73746174C3
:104370007573206572726F72203A20307825303262
:10438000780D0A005F646D39303531662072785FD0
:104390006C656E206572726F72203A2025750D0A69
:1043A0000000000002468A4201D10120704700202F
:1043B000FCE7000010B500228B071C0F0F2303FA47
:1043C00004F28B1033B1012B13D0022B23D0032B1B
:1043D00045D132E0234B1B689343224C2360234694
:1043E0001B688C07240F00FA04F423431D4C236040
:1043F00036E01C4B1B1D1B6893431A4C241D236085
:1044000023461B688C07240F00FA04F42343154C41
:10441000241D236024E0134B08331B689343114C85
:104420000834236023461B688C07240F00FA04F429
:1044300023430C4C0834236012E00A4B0C331B68F6
:104440009343084C0C34236023461B688C07240FCD
:1044500000FA04F42343034C0C34236000E000BF53
:1044600000BF10BD0838014010B5044694F8200084
:10447000062804D10E48007800F00400A8B1208A74
:104480000C490968498A884206DD0A4A1268518A3D
:10449000606802F0AFFC03E0218A606802F0AAFCC9
:1044A000062084F82000012010BD0020FCE7000059
:1044B000140100201801002038B5044601200090A6
:1044C000208D10B1732820D104E000BF00BF7320FD
:1044D000208500BF22460F4904F12800FFF71EFD8A
:1044E00008B9002038BD00BF9C200059D4F8A010A6
:1044F000411A9C20015154F8980FA168084444F8CF
:1045000098099C2000590028E0DC002000902085BC
:104510000220E7E79D280008F8B504460E46012072
:104520000090208DB0F5937F6DD008DCA0B1A0F293
:104530001710B0B106282ED00B2839D14AE0B0F5BB
:10454000957F7CD0B0F5977F6CD0B0F5997F6AD01D
:10455000B0F59B7FF1D1B7E000BF40F21710208586
:1045600000BF3046FBF71AFF07463A46314604F1D2
:104570002800FFF793FD08B90020F8BD00BF2E21E9
:1045800004F18200FBF737FF054695B900BF40F202
:104590001D10208500BF5648FBF700FF07463A462E
:1045A000534904F12800FFF779FD08B90020E4E73A
:1045B00098E0052229464F48FBF70EFF28B1062256
:1045C00029464D48FBF708FF90B900BF4FF49170A2
:1045D000208500BF4948FBF7E1FE07463A464749B8
:1045E00004F12800FFF75AFD08B90020C5E779E07B
:1045F000042229464248FBF7EFFEA8B900BF4FF45A
:104600009370208500BF3F48FBF7C8FE07463A4637
:104610003C4904F12800FFF741FD08B90020ACE750
:1046200060E00CE024E03CE0042229463648FBF739
:10463000D3FE90B900BF4FF49570208500BF33487A
:10464000FBF7ACFE07463A46304904F12800FFF775
:1046500025FD08B9002090E744E0042229462C48B3
:10466000FBF7BAFE90B900BF4FF49770208500BFEA
:104670002848FBF793FE07463A46264904F12800EE
:10468000FFF70CFD08B9002077E72BE0042229464C
:104690002148FBF7A1FE90B900BF4FF49970208527
:1046A00000BF1E48FBF77AFE07463A461B4904F155
:1046B0002800FFF7F3FC08B900205EE712E000BF16
:1046C0004FF49B70208500BF1548FBF767FE074637
:1046D0003A46134904F12800FFF7E0FC08B900202E
:1046E0004BE700BF002000902085022045E7000036
:1046F000928D0008BD8D0008C38D0008EA8C00086B
:10470000CF8D0008068D0008D48D00083D8D00086F
:10471000D98D0008598D0008DE8D0008758D0008C0
:10472000CD8C000830B58BB0044601200590208D5B
:10473000992874D011DC912868D007DC00B38A284E
:1047400022D08C282FD090286AD14DE094287FD099
:10475000952867D09828F7D1B1E0A8287ED008DC4A
:104760009C287CD09D287BD0A1287AD0A528EBD18D
:1047700006E1AC2876D0B02875D0B428E4D13AE16F
:1047800000BF8A20208500BF8422A24904F12800AE
:10479000FFF784FC10B900200BB030BD00BF00BF94
:1047A0008C20208500BF4E229B4904F12800FFF792
:1047B00075FC08B90020EFE700BF98484079974999
:1047C0000979964AD278954B9B78CDE90032CDE9AC
:1047D000021092484378027891A106A8FCF7EAF902
:1047E00000BF9020208500BF06A8FBF7D7FD054637
:1047F0002A4606A904F12800FFF750FC08B900205A
:10480000CAE700BF00BF9120208500BF15228EA1FE
:1048100004F12800FFF742FC28B90020BCE760E063
:10482000F3E015E02DE000BF8D484088000A8C4978
:104830008978CDE900108A480088030A8848027800
:1048400088A106A8FCF7B6F900BF9420208500BF18
:1048500006A8FBF7A3FD05462A4605E09EE05EE0BC
:104860006FE07FE0ABE0B8E006A904F12800FFF7B5
:1048700015FC08B900208FE700BF00BF95202085F8
:1048800000BF1A227DA104F12800FFF707FC08B938
:10489000002081E700BF80484088000A7E4989786F
:1048A000CDE900107C480088030A7B4802786DA19E
:1048B00006A8FCF77FF900BF9820208500BF06A856
:1048C000FBF76CFD05462A4606A904F12800FFF710
:1048D000E5FB08B900205FE700BF00BF99202085F5
:1048E00000BF17226DA104F12800FFF7D7FB08B91C
:1048F000002051E700BF6F484088000A6D49897861
:10490000CDE900106B480088030A6A48027855A177
:1049100006A8FCF74FF900BF9C20208500BF06A821
:10492000FBF73CFD05462A4606A904F12800FFF7DF
:10493000B5FB08B900202FE700BF00BF9D202085F0
:1049400000BF44225C4904F12800FFF7A7FB08B927
:10495000002021E700BF5948006868B100BFA120CE
:10496000208500BF102256A104F12800FFF796FB16
:1049700008B9002010E70DE000BFA520208500BF8A
:10498000092254A104F12800FFF788FB08B9002090
:1049900002E700BF00BFA820208500BF2A2250A147
:1049A00004F12800FFF77AFB08B90020F4E600BF05
:1049B0004248006868B100BFAC20208500BF0A22D1
:1049C00052A104F12800FFF769FB08B90020E3E6D3
:1049D0000DE000BFB020208500BF11224EA104F1E0
:1049E0002800FFF75BFB08B90020D5E600BF00BF39
:1049F000B420208500BF31224CA104F12800FFF72C
:104A00004DFB08B90020C7E600BF002005902085B7
:104A10000220C1E6488F0008D08F0008E87900081E
:104A2000253032783A253032783A253032783A25B6
:104A30003032783A253032783A253032783C2F744B
:104A4000643E3C2F74723E003C74723E3C74643E83
:104A500049503A203C2F74643E3C74643E00000090
:104A6000FC00002025642E25642E25642E25643C40
:104A70002F74643E3C2F74723E0000003C74723E02
:104A80003C74643E476174657761793A203C2F74C9
:104A9000643E3C74643E0000000100203C74723EA1
:104AA0003C74643E4D41534B3A203C2F74643E3C71
:104AB00074643E0004010020008F00080400002000
:104AC000636865636B6564202F3E4C4544204F4E00
:104AD00000000000202F3E4C4544204F4E000000B7
:104AE0003C696E70757420747970653D22726164E2
:104AF000696F22206E616D653D227377697463680A
:104B0000222076616C75653D30200000202F3E4CE0
:104B10004544204F46460000636865636B6564202A
:104B20002F3E4C4544204F46460000003C696E70C5
:104B3000757420747970653D227375626D69742295
:104B40002076616C75653D22436F6E6669726D22D9
:104B5000202F3E3C2F74643E3C2F74723E000000B8
:104B600038B5044601200090208D10B17F2810D167
:104B700003E000BF7F20208500BF04F12800D4F8A7
:104B8000A020D4F89810FFF789FA08B9002038BDA2
:104B900000BF0020009020850220F8E7002101706E
:104BA00041708170C1700171417181710121C171C8
:104BB0007047026861F38612026070470146C86858
:104BC00080B27047C16070470246002093680B4076
:104BD00003B900E001207047C26922F40062C2619B
:104BE0000A7862B9026822F400420260026822F484
:104BF00080420260026822F48062026036E00A7835
:104C0000012A0ED1026822F400420260026822F4F6
:104C100080420260026822F4806202F580620260D3
:104C200024E00A78022A0ED1026822F4004202F53A
:104C300000420260026822F480420260026822F4AC
:104C40008062026012E00A78032A0FD1026822F41F
:104C5000004202F500420260026822F4804202F53E
:104C600080420260026822F480620260CB790268AE
:104C700063F3492202604A78012A09D1CA79012ADC
:104C800006D1026822F4807202F58072026003E0AD
:104C9000026822F4807202604B78026863F3820239
:104CA00002608A78072A0DDC426822F400724260B2
:104CB000426822F4807242608B78026863F3C50216
:104CC000026020E08A780A2A0ED1426822F400723B
:104CD00002F500724260426822F48072426002680B
:104CE00022F0380202600EE0426822F40072426054
:104CF000426822F4807202F5807242608A7803680A
:104D000062F3C5030360CB78026863F3C7120260E5
:104D10000B79026863F3CB2202604B79026863F37C
:104D2000410202608B79026863F3000202607047FF
:104D300070B5B2B005460E462A460BA101A8FBF796
:104D400039FF0446214605A8FFF7E0FA05A908192E
:104D500001AA08A1FBF72EFF1EB105A906A0FBF7CB
:104D600001FF204632B070BD72786C656E2025342C
:104D7000640000002025730025730D0A0000000068
:104D8000F0B505AC94E8F010F0BD00002DE9FF414E
:104D900044A0FBF7E7FE4FA0FBF7E4FE554840793F
:104DA00054490979534AD278CDE9002102905148FB
:104DB00083784278017850A0FBF7D4FE00BF5A48B0
:104DC0000088ADF80C0058484088ADF80E0000BFD0
:104DD000BDF80E00FEF72CFBC4B2BDF80E00FEF7C6
:104DE00027FB0512BDF80C00FEF722FBC6B2BDF88A
:104DF0000C00FEF71DFB07122B46324639464BA02E
:104E00000094FBF7AFFE00BF50480088ADF80C00DF
:104E10004E484088ADF80E0000BFBDF80E00FEF70A
:104E200007FBC4B2BDF80E00FEF702FB0512BDF889
:104E30000C00FEF7FDFAC6B2BDF80C00FEF7F8FA5A
:104E400007122B463246394641A00094FBF78AFEF2
:104E500000BF47480088ADF80C0045484088ADF8D1
:104E60000E0000BFBDF80E00FEF7E2FAC4B2BDF8B6
:104E70000E00FEF7DDFA0512BDF80C00FEF7D8FAB9
:104E8000C6B2BDF80C00FEF7D3FA07122B46324625
:104E9000394638A00094FBF765FE02A0FBF762FEDE
:104EA000BDE8FF812D2D2D2D2D2D2D2D2D2D2D2DC1
:104EB0002D2D2D2D2D2D2D2D2D2D2D2D2D2D2D2D22
:104EC0002D2D2D2D2D2D2D2D2D2D2D2D2D2D2D2D12
:104ED0002D0D0A004E6574776F726B2063686970E0
:104EE0003A2044415649434F4D20444D39303531E5
:104EF000200D0A00E87900084D41432041646472A6
:104F00006573733A20253032583A253032583A25A5
:104F10003032583A253032583A253032583A253016
:104F20003258200D0A000000FC000020486F737406
:104F300020495020416464726573733A2025642EC1
:104F400025642E25642E2564200D0A00040100200E
:104F50004E6574776F726B204D61736B3A202564D8
:104F60002E25642E25642E2564200D0A00000000E5
:104F70000001002047617465776179204950204124
:104F80006464726573733A2025642E25642E25644B
:104F90002E2564200D0A000038B504460D46012078
:104FA0000090208D18B1B0F5877F1CD111E0B4F8C6
:104FB000AC0000EB001000EB40000D4901EB80005D
:104FC000407E00F00F0070B100BF4FF48770208565
:104FD00000BF2246074904F12800FEF79FFF08B9E9
:104FE000002038BD00BF0020009020850220F8E797
:104FF000E0AB0020E528000810B501212248FCF7AD
:105000000DFC2248006920F00700401C1F49086180
:105010001F48006820F00300401C1D490860FCF791
:105020003DFC01210846FCF717FB00BFFCF7DEFB47
:105030000028FBD0022301227D211046FCF714FC3E
:1050400001210220FCF708FB00BF1920FCF7B6FB8A
:105050000128FAD10020FCF7CDFA0420FCF7DEFA93
:105060000420FCF7D1FA0120FCF7E2FA0220FCF759
:105070004FFC00BFFCF756FC0228FBD10020FCF7D8
:10508000D7FA00F007F810BD1C0040000070004087
:10509000603C02402DE9FE4F002500260027AB466C
:1050A000A84600BF00BFA248D0F800A0FCF73AFC19
:1050B0000290029820B1012855D0022877D177E0DC
:1050C0009C480068C0F38030002828D099480068C8
:1050D000C0F3003018B398489549086097490968AB
:1050E000C1EBC10101EB4101954A02EB8101081DB1
:1050F0008F4952460B6893A1FBF75CFD8F4800680F
:10510000401C8E490860084601680068401EC0EBDC
:10511000C00000EB40008A4A42F8201022E0994883
:105120008349086085490968C1EBC10101EB410170
:10513000834A02EB8101081D7D4952460B6892A10A
:10514000FBF738FD7D480068401C7C490860084634
:1051500001680068401EC0EBC00000EB4000784AC8
:1051600042F82010AFE08748714908607349096828
:10517000C1EBC10101EB4101714A02EB8101081D44
:105180006B4952460B6890A1FBF714FD6B48006811
:10519000401C6A490860084601680068401EC0EB70
:1051A000C00000EB4000664A42F820108BE066E049
:1051B00060489C380068C0F3805B5E489C3800689B
:1051C000C0F388155B489C38006800F00F0659480A
:1051D0009C380068C0F302408A490F5CBBF1000FA5
:1051E00002D1DFF8A08101E0DFF898815349CDE9D1
:1051F00000670968C1EBC10101EB4101504A02EBB4
:105200008101081D2B4642467F49FBF7D3FC4B48E2
:105210000068401C49490860084601680068401E53
:10522000C0EBC00000EB4000454A42F8201008FBEC
:1052300005F006FB07F1B0FBF1F03D4908603F497E
:105240000968C1EBC10101EB410102EB8101081DBD
:10525000374952460B686DA1FBF7ACFC3748006834
:10526000401C36490860084601680068401EC0EBD3
:10527000C00000EB4000324A42F8201023E04148D1
:105280002B4908602D490968C1EBC10101EB4101BF
:105290002B4A02EB8101081D254952460B6868A183
:1052A000FBF788FC25480068401C24490860084634
:1052B00001680068401EC0EBC00000EB4000204ABF
:1052C00042F8201000BF00BF1948D0F800A01948CC
:1052D00098380068C0F30319664810F8094014486C
:1052E0000068E04012490860144900940968C1EB65
:1052F000C10101EB4101124A02EB8101081D0C4979
:1053000052460B685C49FBF755FC0C480068401C92
:105310000A490860084601680068401EC0EBC000EA
:1053200000EB4000064A42F82010BDE8FE8F000066
:105330008C000020A0380240006CDC0290000020AD
:10534000BC01002073636C6B5F736F757263652CB7
:105350002043524D5F53434C4B5F4849434B3A20E7
:1053600025752063616C632D746F20257520284896
:1053700049434B5F56414C5545202A2036290D0A9A
:105380000000000000127A0073636C6B5F736F752E
:105390007263652C2043524D5F53434C4B5F484929
:1053A000434B3A2025752063616C632D746F202573
:1053B0007520284849434B5F56414C5545202A20CB
:1053C00031290D0A0000000073636C6B5F736F7509
:1053D0007263652C2043524D5F53434C4B5F4845ED
:1053E00058543A2025752063616C632D746F202515
:1053F000752028484558545F56414C5545290D0A9B
:1054000000000000DA790008BC8E000873636C6B42
:105410005F736F757263652C2043524D5F53434C2D
:105420004B5F504C4C3A2025752063616C632D74A2
:105430006F2025752028706C6C5F6672290D0A003C
:1054400073636C6B5F736F757263652C2064656644
:1054500061756C743A2025752063616C632D746FDF
:1054600020257520284849434B5F56414C55452916
:105470000D0A0000CA790008788E000810B50748A8
:1054800000688088B0F5A04F02D1FDF7D7FF00E09B
:1054900000BF00BF00BF00BF00BF10BD180100204B
:1054A00010B50446FCF777F82168401A6168884215
:1054B00001D3012010BD0020FCE7D0E90012114407
:1054C0000160704770B504460D466560FCF763F8EF
:1054D000206070BD70B505460C4629460220FDF7D8
:1054E000E2FC0EE0641E0120FCF77FFC0220FDF7C9
:1054F000A6FB00F0010000B970BD14B903A0FBF7D2
:1055000031FB002CEED100BFF6E7000074785F633A
:10551000686B5F74696D656F75742875696E743337
:10552000325F742074696D656F75745F75732920BF
:105530002D2D20436865636B20636F6E6469746909
:105540006F6E210D0A00000010B50446FCF7B6FE90
:105550002046FCF797FE10BD00BF00BF00BF70479C
:10556000C2780A44194BDA70827802EB21229A70D1
:1055700042785A7002781A701A469278B2EB212F4C
:105580000ADA1A465278521C5A701A4652781AB9D8
:105590001A461278521C1A700C4AD278CBB29A4230
:1055A00012DA0A4A9278521C084B9A701A4692787C
:1055B00052B91A465278521C5A701A4652781AB981
:1055C0001A461278521C1A707047000028010020F9
:1055D00010B5044621460D4800680830FFF7C0FFAB
:1055E0000B4800780949096808720948417807485A
:1055F0000068417206488178044800688172044856
:10560000C17802480068C17210BD00001801002076
:105610002801002010B5354800882A2803D2002030
:105620003249088010BD0020304908803048808A07
:10563000B0F5807F03D0B0F5007F54D141E02C4815
:10564000C08C2C49098888423AD12948008D2949C3
:105650004988884234D126491631881D00F066F900
:105660004FF40070224988820846D1F81620026261
:10567000498B818420490A68C0F8162089884183B3
:105680001D490A68C0F806208988418101460A6AD6
:105690000260898C8180808B1549C8840846C18B43
:1056A00001851448008812498883124841881048AF
:1056B000C1834FF4C1600E4988812A200B490880BC
:1056C00011E00B48C08C0B49098888420AD1084870
:1056D000008D08494988884204D105491631881D42
:1056E00000F024F900BF00BF00BF9BE710010020BD
:1056F0009CA50020FC000020E879000800200B4950
:1057000008700DE00948007800EB4000084901EB03
:1057100080000021016005480078401C03490870A2
:10572000024800780828EDDB7047000034010020B3
:105730009CB2002010B55B48C08B5B490988884249
:105740000CD15848008C58494988884206D15548A0
:1057500056490A6802608988818091E05148C08B6F
:1057600053490988084053490988514A1288114011
:1057700088420BD14B48008C4D49498808404D491F
:1057800049884B4A52881140884208D000BF4A4895
:1057900000884A49088048484088488008E000BF9F
:1057A0004048C08B454908803E48008C488000BF77
:1057B00000204349087016E04148007800EB4000A3
:1057C000404901EB80043D4800882188884205D18A
:1057D0003A4840886188884200D108E0384800781B
:1057E000401C37490870364800780828E4DB00BFC1
:1057F0003348007808283ED1FF2206212948FAF7CD
:10580000A5FD28480021016281842F490A68C0F85B
:105810000620898841812C490A68C0F816208988A9
:10582000418300BF254800881E49C8842348418819
:105830001C48018500BF00BF1E48008819498883A5
:105840001C4841881748C18300BF4FF48070154938
:105850008882C88108200882062088740420C874C1
:105860004FF4C160888101F13600184908602A2090
:105870001749088010BD0B4861680160218981804B
:10588000084811490A68C0F8062089884181082023
:10589000044988810E4800880E300D49088000BFF9
:1058A000E8E700009CA50020F4790008EE790008E4
:1058B00004010020FC000020000100203001002035
:1058C000340100209CB20020E87900080801002083
:1058D0001001002012490978491C114A1170002159
:1058E000104A117017E00F49097801EB41010E4A87
:1058F00002EB810001884288114339B1817A084A5C
:105900001278511A782901DB0021016005490978D4
:10591000491C044A1170034909780829E3DB7047E0
:1059200036010020340100209CB2002010B5024650
:105930000023424C23701FE0404B1B7803EB4303D2
:105940003F4C04EB830003888BB143887BB1138801
:105950000488A3420BD153884488A34207D10B6823
:1059600043608B880381374B1B78837210BD334BA8
:105970001B785B1C314C2370304B1B78082BDBDB16
:1059800000232E4C237010E02C4B1B7803EB4303B9
:105990002B4C04EB8300038813B9438803B908E058
:1059A000264B1B785B1C254C2370244B1B78082B43
:1059B000EADB00BF214B1B78082B34D10023224C9B
:1059C0002370224C23701D4C23701DE01B4B1B7851
:1059D00003EB43031A4C04EB8300837A194C2478BD
:1059E000E31A194C2478A34209DD837A154C2478F4
:1059F000E31A154C2370114B1B78144C23700F4B7A
:105A00001B785B1C0D4C23700C4B1B78082BDDDBCB
:105A10000E4B1B78094C237023461B7803EB430382
:105A2000074C04EB8300136803600B6843608B88AA
:105A30000381044B1B78837200BF97E73401002079
:105A40009CB20020360100203701002035010020E3
:105A50000020214908700AE0002020491E4A1278DF
:105A600021F812001C480078401C1B4908701A4895
:105A700000780528F0DB0020174908700FE00020AF
:105A80001549097801EB011101EB4101144A02EBC0
:105A90008101487610480078401C0F4908700E4874
:105AA00000780528EBDB4FF480600E490880002069
:105AB000094908700BE000200B49074A127801EBF6
:105AC0008211888004480078401C0349087002480D
:105AD00000780A28EFDB70472C010020DCAF0020A3
